{
  "contractName": "Product",
  "abi": [
    {
      "inputs": [],
      "stateMutability": "nonpayable",
      "type": "constructor"
    },
    {
      "anonymous": false,
      "inputs": [
        {
          "indexed": true,
          "internalType": "bytes32",
          "name": "role",
          "type": "bytes32"
        },
        {
          "indexed": true,
          "internalType": "bytes32",
          "name": "previousAdminRole",
          "type": "bytes32"
        },
        {
          "indexed": true,
          "internalType": "bytes32",
          "name": "newAdminRole",
          "type": "bytes32"
        }
      ],
      "name": "RoleAdminChanged",
      "type": "event"
    },
    {
      "anonymous": false,
      "inputs": [
        {
          "indexed": true,
          "internalType": "bytes32",
          "name": "role",
          "type": "bytes32"
        },
        {
          "indexed": true,
          "internalType": "address",
          "name": "account",
          "type": "address"
        },
        {
          "indexed": true,
          "internalType": "address",
          "name": "sender",
          "type": "address"
        }
      ],
      "name": "RoleGranted",
      "type": "event"
    },
    {
      "anonymous": false,
      "inputs": [
        {
          "indexed": true,
          "internalType": "bytes32",
          "name": "role",
          "type": "bytes32"
        },
        {
          "indexed": true,
          "internalType": "address",
          "name": "account",
          "type": "address"
        },
        {
          "indexed": true,
          "internalType": "address",
          "name": "sender",
          "type": "address"
        }
      ],
      "name": "RoleRevoked",
      "type": "event"
    },
    {
      "inputs": [],
      "name": "DEFAULT_ADMIN_ROLE",
      "outputs": [
        {
          "internalType": "bytes32",
          "name": "",
          "type": "bytes32"
        }
      ],
      "stateMutability": "view",
      "type": "function",
      "constant": true
    },
    {
      "inputs": [],
      "name": "MANUFACTURER",
      "outputs": [
        {
          "internalType": "bytes32",
          "name": "",
          "type": "bytes32"
        }
      ],
      "stateMutability": "view",
      "type": "function",
      "constant": true
    },
    {
      "inputs": [
        {
          "internalType": "bytes32",
          "name": "role",
          "type": "bytes32"
        }
      ],
      "name": "getRoleAdmin",
      "outputs": [
        {
          "internalType": "bytes32",
          "name": "",
          "type": "bytes32"
        }
      ],
      "stateMutability": "view",
      "type": "function",
      "constant": true
    },
    {
      "inputs": [
        {
          "internalType": "bytes32",
          "name": "role",
          "type": "bytes32"
        },
        {
          "internalType": "address",
          "name": "account",
          "type": "address"
        }
      ],
      "name": "grantRole",
      "outputs": [],
      "stateMutability": "nonpayable",
      "type": "function"
    },
    {
      "inputs": [
        {
          "internalType": "bytes32",
          "name": "role",
          "type": "bytes32"
        },
        {
          "internalType": "address",
          "name": "account",
          "type": "address"
        }
      ],
      "name": "hasRole",
      "outputs": [
        {
          "internalType": "bool",
          "name": "",
          "type": "bool"
        }
      ],
      "stateMutability": "view",
      "type": "function",
      "constant": true
    },
    {
      "inputs": [],
      "name": "manufacturer",
      "outputs": [
        {
          "internalType": "address",
          "name": "",
          "type": "address"
        }
      ],
      "stateMutability": "view",
      "type": "function",
      "constant": true
    },
    {
      "inputs": [
        {
          "internalType": "bytes32",
          "name": "role",
          "type": "bytes32"
        },
        {
          "internalType": "address",
          "name": "account",
          "type": "address"
        }
      ],
      "name": "renounceRole",
      "outputs": [],
      "stateMutability": "nonpayable",
      "type": "function"
    },
    {
      "inputs": [
        {
          "internalType": "bytes32",
          "name": "role",
          "type": "bytes32"
        },
        {
          "internalType": "address",
          "name": "account",
          "type": "address"
        }
      ],
      "name": "revokeRole",
      "outputs": [],
      "stateMutability": "nonpayable",
      "type": "function"
    },
    {
      "inputs": [
        {
          "internalType": "bytes4",
          "name": "interfaceId",
          "type": "bytes4"
        }
      ],
      "name": "supportsInterface",
      "outputs": [
        {
          "internalType": "bool",
          "name": "",
          "type": "bool"
        }
      ],
      "stateMutability": "view",
      "type": "function",
      "constant": true
    },
    {
      "inputs": [
        {
          "internalType": "string",
          "name": "_manufacturerId",
          "type": "string"
        },
        {
          "internalType": "string",
          "name": "_sellerName",
          "type": "string"
        },
        {
          "internalType": "string",
          "name": "_sellerBrand",
          "type": "string"
        },
        {
          "internalType": "uint256",
          "name": "_sellerNum",
          "type": "uint256"
        },
        {
          "internalType": "string",
          "name": "_sellerManager",
          "type": "string"
        },
        {
          "internalType": "string",
          "name": "_sellerAddress",
          "type": "string"
        }
      ],
      "name": "addSeller",
      "outputs": [],
      "stateMutability": "nonpayable",
      "type": "function"
    },
    {
      "inputs": [],
      "name": "viewSellers",
      "outputs": [
        {
          "components": [
            {
              "internalType": "uint256",
              "name": "sellerId",
              "type": "uint256"
            },
            {
              "internalType": "string",
              "name": "sellerName",
              "type": "string"
            },
            {
              "internalType": "string",
              "name": "sellerBrand",
              "type": "string"
            },
            {
              "internalType": "uint256",
              "name": "sellerNum",
              "type": "uint256"
            },
            {
              "internalType": "string",
              "name": "sellerManager",
              "type": "string"
            },
            {
              "internalType": "string",
              "name": "sellerAddress",
              "type": "string"
            }
          ],
          "internalType": "struct Product.Seller[]",
          "name": "",
          "type": "tuple[]"
        }
      ],
      "stateMutability": "view",
      "type": "function",
      "constant": true
    },
    {
      "inputs": [
        {
          "internalType": "string",
          "name": "_manufacturerID",
          "type": "string"
        },
        {
          "internalType": "string",
          "name": "_productName",
          "type": "string"
        },
        {
          "internalType": "string",
          "name": "_productSN",
          "type": "string"
        },
        {
          "internalType": "string",
          "name": "_productBrand",
          "type": "string"
        },
        {
          "internalType": "uint256",
          "name": "_productPrice",
          "type": "uint256"
        }
      ],
      "name": "addProduct",
      "outputs": [],
      "stateMutability": "nonpayable",
      "type": "function"
    },
    {
      "inputs": [],
      "name": "viewProductItems",
      "outputs": [
        {
          "components": [
            {
              "internalType": "uint256",
              "name": "productId",
              "type": "uint256"
            },
            {
              "internalType": "string",
              "name": "productSN",
              "type": "string"
            },
            {
              "internalType": "string",
              "name": "productName",
              "type": "string"
            },
            {
              "internalType": "string",
              "name": "productBrand",
              "type": "string"
            },
            {
              "internalType": "uint256",
              "name": "productPrice",
              "type": "uint256"
            },
            {
              "internalType": "string",
              "name": "productStatus",
              "type": "string"
            }
          ],
          "internalType": "struct Product.ProductItem[]",
          "name": "",
          "type": "tuple[]"
        }
      ],
      "stateMutability": "view",
      "type": "function",
      "constant": true
    },
    {
      "inputs": [
        {
          "internalType": "string",
          "name": "_productSN",
          "type": "string"
        },
        {
          "internalType": "string",
          "name": "_sellerAddress",
          "type": "string"
        }
      ],
      "name": "manufacturerSellProduct",
      "outputs": [],
      "stateMutability": "nonpayable",
      "type": "function"
    },
    {
      "inputs": [
        {
          "internalType": "string",
          "name": "_productSN",
          "type": "string"
        },
        {
          "internalType": "string",
          "name": "_consumerCode",
          "type": "string"
        }
      ],
      "name": "sellerSellProduct",
      "outputs": [],
      "stateMutability": "nonpayable",
      "type": "function"
    },
    {
      "inputs": [
        {
          "internalType": "string",
          "name": "_sellerAddress",
          "type": "string"
        }
      ],
      "name": "queryProductsList",
      "outputs": [
        {
          "components": [
            {
              "internalType": "uint256",
              "name": "productId",
              "type": "uint256"
            },
            {
              "internalType": "string",
              "name": "productSN",
              "type": "string"
            },
            {
              "internalType": "string",
              "name": "productName",
              "type": "string"
            },
            {
              "internalType": "string",
              "name": "productBrand",
              "type": "string"
            },
            {
              "internalType": "uint256",
              "name": "productPrice",
              "type": "uint256"
            },
            {
              "internalType": "string",
              "name": "productStatus",
              "type": "string"
            }
          ],
          "internalType": "struct Product.ProductItem[]",
          "name": "",
          "type": "tuple[]"
        }
      ],
      "stateMutability": "view",
      "type": "function",
      "constant": true
    },
    {
      "inputs": [
        {
          "internalType": "string",
          "name": "_consumerCode",
          "type": "string"
        }
      ],
      "name": "getPurchaseHistory",
      "outputs": [
        {
          "components": [
            {
              "internalType": "string",
              "name": "productSN",
              "type": "string"
            },
            {
              "internalType": "string",
              "name": "sellerAddress",
              "type": "string"
            },
            {
              "internalType": "string",
              "name": "manufacturerCode",
              "type": "string"
            }
          ],
          "internalType": "struct Product.ProductInfo[]",
          "name": "",
          "type": "tuple[]"
        }
      ],
      "stateMutability": "view",
      "type": "function",
      "constant": true
    },
    {
      "inputs": [
        {
          "internalType": "string",
          "name": "_productSN",
          "type": "string"
        },
        {
          "internalType": "string",
          "name": "_consumerCode",
          "type": "string"
        }
      ],
      "name": "verifyProduct",
      "outputs": [
        {
          "internalType": "bool",
          "name": "",
          "type": "bool"
        }
      ],
      "stateMutability": "view",
      "type": "function",
      "constant": true
    }
  ],
  "bytecode": "0x6080604052600380546001600160a01b0319167355004bec89175244026f7735ff07924c41ee84f81790553480156200003757600080fd5b5060035462000071907f6659d833875b88922d2576dad6c137a09ba676496bb2010bf8a72397792167a0906001600160a01b031662000077565b62000127565b62000083828262000087565b5050565b6000828152602081815260408083206001600160a01b038516845290915290205460ff1662000083576000828152602081815260408083206001600160a01b03851684529091529020805460ff19166001179055620000e33390565b6001600160a01b0316816001600160a01b0316837f2f8788117e7eff1d82e926ec794901d17c78024a50270940304540a733656f0d60405160405180910390a45050565b6124b180620001376000396000f3fe608060405234801561001057600080fd5b50600436106101165760003560e01c806337f0cda2116100a257806380e345a01161007157806380e345a01461027757806391d1485414610297578063a217fddf146102aa578063cf693e81146102b2578063d547741f146102c557600080fd5b806337f0cda2146101ff57806349ec99ee1461021257806351cb74ac14610239578063747542821461024c57600080fd5b8063248a9ca3116100e9578063248a9ca31461018057806325dfbfba146101b15780632f2ff15d146101c657806330e6315a146101d957806336568abe146101ec57600080fd5b806301ffc9a71461011b578063032f95e6146101435780630ad97612146101585780631836bd4b14610178575b600080fd5b61012e610129366004611bd6565b6102d8565b60405190151581526020015b60405180910390f35b61014b61030f565b60405161013a9190611c50565b61016b610166366004611dc5565b610658565b60405161013a9190611e02565b61016b610b90565b6101a361018e366004611ec6565b60009081526020819052604090206001015490565b60405190815260200161013a565b6101c46101bf366004611edf565b610ed3565b005b6101c46101d4366004611f94565b611028565b6101c46101e7366004611fd0565b611052565b6101c46101fa366004611f94565b61117a565b6101c461020d3660046120aa565b6111f8565b6101a37f6659d833875b88922d2576dad6c137a09ba676496bb2010bf8a72397792167a081565b61012e6102473660046120aa565b611449565b60035461025f906001600160a01b031681565b6040516001600160a01b03909116815260200161013a565b61028a610285366004611dc5565b6114bf565b60405161013a919061210e565b61012e6102a5366004611f94565b61181d565b6101a3600081565b6101c46102c03660046120aa565b611846565b6101c46102d3366004611f94565b6118ad565b60006001600160e01b03198216637965db0b60e01b148061030957506301ffc9a760e01b6001600160e01b03198316145b92915050565b6060600060015467ffffffffffffffff81111561032e5761032e611d22565b60405190808252806020026020018201604052801561039857816020015b6103856040518060c001604052806000815260200160608152602001606081526020016000815260200160608152602001606081525090565b81526020019060019003908161034c5790505b50905060005b60015481101561065257600460008281526020019081526020016000206040518060c0016040529081600082015481526020016001820180546103e0906121a1565b80601f016020809104026020016040519081016040528092919081815260200182805461040c906121a1565b80156104595780601f1061042e57610100808354040283529160200191610459565b820191906000526020600020905b81548152906001019060200180831161043c57829003601f168201915b50505050508152602001600282018054610472906121a1565b80601f016020809104026020016040519081016040528092919081815260200182805461049e906121a1565b80156104eb5780601f106104c0576101008083540402835291602001916104eb565b820191906000526020600020905b8154815290600101906020018083116104ce57829003601f168201915b505050505081526020016003820154815260200160048201805461050e906121a1565b80601f016020809104026020016040519081016040528092919081815260200182805461053a906121a1565b80156105875780601f1061055c57610100808354040283529160200191610587565b820191906000526020600020905b81548152906001019060200180831161056a57829003601f168201915b505050505081526020016005820180546105a0906121a1565b80601f01602080910402602001604051908101604052809291908181526020018280546105cc906121a1565b80156106195780601f106105ee57610100808354040283529160200191610619565b820191906000526020600020905b8154815290600101906020018083116105fc57829003601f168201915b505050505081525050828281518110610634576106346121d5565b6020026020010181905250808061064a90612201565b91505061039e565b50919050565b606060008251116106b05760405162461bcd60e51b815260206004820152601b60248201527f53656c6c657220636f64652063616e6e6f7420626520656d707479000000000060448201526064015b60405180910390fd5b6000600a836040516106c2919061221a565b9081526020016040518091039020805480602002602001604051908101604052809291908181526020016000905b8282101561079c57838290600052602060002001805461070f906121a1565b80601f016020809104026020016040519081016040528092919081815260200182805461073b906121a1565b80156107885780601f1061075d57610100808354040283529160200191610788565b820191906000526020600020905b81548152906001019060200180831161076b57829003601f168201915b5050505050815260200190600101906106f0565b5050505090506000805b82518110156107f25760008382815181106107c3576107c36121d5565b60200260200101515111156107e057816107dc81612201565b9250505b806107ea81612201565b9150506107a6565b5060008167ffffffffffffffff81111561080e5761080e611d22565b60405190808252806020026020018201604052801561087857816020015b6108656040518060c001604052806000815260200160608152602001606081526020016060815260200160008152602001606081525090565b81526020019060019003908161082c5790505b5090506000805b8451811015610b8557600085828151811061089c5761089c6121d5565b60200260200101519050600081511115610b725760006006826040516108c2919061221a565b9081526040805191829003602090810183205460008181526005835283902060c08501909352825484526001830180549195509184019190610903906121a1565b80601f016020809104026020016040519081016040528092919081815260200182805461092f906121a1565b801561097c5780601f106109515761010080835404028352916020019161097c565b820191906000526020600020905b81548152906001019060200180831161095f57829003601f168201915b50505050508152602001600282018054610995906121a1565b80601f01602080910402602001604051908101604052809291908181526020018280546109c1906121a1565b8015610a0e5780601f106109e357610100808354040283529160200191610a0e565b820191906000526020600020905b8154815290600101906020018083116109f157829003601f168201915b50505050508152602001600382018054610a27906121a1565b80601f0160208091040260200160405190810160405280929190818152602001828054610a53906121a1565b8015610aa05780601f10610a7557610100808354040283529160200191610aa0565b820191906000526020600020905b815481529060010190602001808311610a8357829003601f168201915b5050505050815260200160048201548152602001600582018054610ac3906121a1565b80601f0160208091040260200160405190810160405280929190818152602001828054610aef906121a1565b8015610b3c5780601f10610b1157610100808354040283529160200191610b3c565b820191906000526020600020905b815481529060010190602001808311610b1f57829003601f168201915b505050505081525050858581518110610b5757610b576121d5565b60200260200101819052508380610b6d90612201565b945050505b5080610b7d81612201565b91505061087f565b509095945050505050565b6060600060025467ffffffffffffffff811115610baf57610baf611d22565b604051908082528060200260200182016040528015610c1957816020015b610c066040518060c001604052806000815260200160608152602001606081526020016060815260200160008152602001606081525090565b815260200190600190039081610bcd5790505b50905060005b60025481101561065257600560008281526020019081526020016000206040518060c001604052908160008201548152602001600182018054610c61906121a1565b80601f0160208091040260200160405190810160405280929190818152602001828054610c8d906121a1565b8015610cda5780601f10610caf57610100808354040283529160200191610cda565b820191906000526020600020905b815481529060010190602001808311610cbd57829003601f168201915b50505050508152602001600282018054610cf3906121a1565b80601f0160208091040260200160405190810160405280929190818152602001828054610d1f906121a1565b8015610d6c5780601f10610d4157610100808354040283529160200191610d6c565b820191906000526020600020905b815481529060010190602001808311610d4f57829003601f168201915b50505050508152602001600382018054610d85906121a1565b80601f0160208091040260200160405190810160405280929190818152602001828054610db1906121a1565b8015610dfe5780601f10610dd357610100808354040283529160200191610dfe565b820191906000526020600020905b815481529060010190602001808311610de157829003601f168201915b5050505050815260200160048201548152602001600582018054610e21906121a1565b80601f0160208091040260200160405190810160405280929190818152602001828054610e4d906121a1565b8015610e9a5780601f10610e6f57610100808354040283529160200191610e9a565b820191906000526020600020905b815481529060010190602001808311610e7d57829003601f168201915b505050505081525050828281518110610eb557610eb56121d5565b60200260200101819052508080610ecb90612201565b915050610c1f565b7f6659d833875b88922d2576dad6c137a09ba676496bb2010bf8a72397792167a0610efd816118d2565b6040805160c08101825260025480825260208083018881528385018a90526060840188905260808401879052845180860186526009815268417661696c61626c6560b81b8184015260a0850152600092835260059091529290208151815591519091906001820190610f6f908261227c565b5060408201516002820190610f84908261227c565b5060608201516003820190610f99908261227c565b506080820151600482015560a08201516005820190610fb8908261227c565b50905050600254600685604051610fcf919061221a565b9081526040519081900360200190205560028054906000610fef83612201565b919050555085600785604051611005919061221a565b9081526020016040518091039020908161101f919061227c565b50505050505050565b600082815260208190526040902060010154611043816118d2565b61104d83836118df565b505050565b7f6659d833875b88922d2576dad6c137a09ba676496bb2010bf8a72397792167a061107c816118d2565b6040805160c0810182526001805480835260208084018b81528486018b9052606085018a90526080850189905260a0850188905260009283526004909152939020825181559251919291908201906110d4908261227c565b50604082015160028201906110e9908261227c565b506060820151600382015560808201516004820190611108908261227c565b5060a0820151600582019061111d908261227c565b5050600180549150600061113083612201565b9190505550600c87604051611145919061221a565b908152604051602091819003820190208054600181018255600091825291902001611170838261227c565b5050505050505050565b6001600160a01b03811633146111ea5760405162461bcd60e51b815260206004820152602f60248201527f416363657373436f6e74726f6c3a2063616e206f6e6c792072656e6f756e636560448201526e103937b632b9903337b91039b2b63360891b60648201526084016106a7565b6111f48282611963565b5050565b600080600060025411156112945760005b6002548110156112925784604051602001611224919061221a565b60408051601f19818403018152828252805160209182012060008581526005835292909220919261125992600101910161233c565b60405160208183030381529060405280519060200120036112805780925060019150611292565b8061128a81612201565b915050611209565b505b806112d55760405162461bcd60e51b8152602060048201526011602482015270141c9bd91d58dd081b9bdd08199bdd5b99607a1b60448201526064016106a7565b60405168417661696c61626c6560b81b6020820152600090602901604051602081830303815290604052805190602001206005600085815260200190815260200160002060050160405160200161132c919061233c565b604051602081830303815290604052805190602001201490508061139c5760405162461bcd60e51b815260206004820152602160248201527f50726f64756374206973206e6f7420617661696c61626c6520666f722073616c6044820152606560f81b60648201526084016106a7565b604051806040016040528060028152602001614e4160f01b8152506005600085815260200190815260200160002060050190816113d9919061227c565b50600b846040516113ea919061221a565b908152604051602091819003820190208054600181018255600091825291902001611415868261227c565b5083600986604051611427919061221a565b90815260200160405180910390209081611441919061227c565b505050505050565b60008160405160200161145c919061221a565b60405160208183030381529060405280519060200120600984604051611482919061221a565b90815260200160405180910390206040516020016114a0919061233c565b6040516020818303038152906040528051906020012014905092915050565b60606000600b836040516114d3919061221a565b9081526020016040518091039020805480602002602001604051908101604052809291908181526020016000905b828210156115ad578382906000526020600020018054611520906121a1565b80601f016020809104026020016040519081016040528092919081815260200182805461154c906121a1565b80156115995780601f1061156e57610100808354040283529160200191611599565b820191906000526020600020905b81548152906001019060200180831161157c57829003601f168201915b505050505081526020019060010190611501565b5050505090506000815167ffffffffffffffff8111156115cf576115cf611d22565b60405190808252806020026020018201604052801561162457816020015b61161160405180606001604052806060815260200160608152602001606081525090565b8152602001906001900390816115ed5790505b50905060005b8251811015611815576040518060600160405280848381518110611650576116506121d5565b602002602001015181526020016008858481518110611671576116716121d5565b6020026020010151604051611686919061221a565b9081526020016040518091039020805461169f906121a1565b80601f01602080910402602001604051908101604052809291908181526020018280546116cb906121a1565b80156117185780601f106116ed57610100808354040283529160200191611718565b820191906000526020600020905b8154815290600101906020018083116116fb57829003601f168201915b505050505081526020016007858481518110611736576117366121d5565b602002602001015160405161174b919061221a565b90815260200160405180910390208054611764906121a1565b80601f0160208091040260200160405190810160405280929190818152602001828054611790906121a1565b80156117dd5780601f106117b2576101008083540402835291602001916117dd565b820191906000526020600020905b8154815290600101906020018083116117c057829003601f168201915b50505050508152508282815181106117f7576117f76121d5565b6020026020010181905250808061180d90612201565b91505061162a565b509392505050565b6000918252602082815260408084206001600160a01b0393909316845291905290205460ff1690565b600a81604051611856919061221a565b908152604051602091819003820190208054600181018255600091825291902001611881838261227c565b5080600883604051611893919061221a565b9081526020016040518091039020908161104d919061227c565b6000828152602081905260409020600101546118c8816118d2565b61104d8383611963565b6118dc81336119c8565b50565b6118e9828261181d565b6111f4576000828152602081815260408083206001600160a01b03851684529091529020805460ff1916600117905561191f3390565b6001600160a01b0316816001600160a01b0316837f2f8788117e7eff1d82e926ec794901d17c78024a50270940304540a733656f0d60405160405180910390a45050565b61196d828261181d565b156111f4576000828152602081815260408083206001600160a01b0385168085529252808320805460ff1916905551339285917ff6391f5c32d9c69d2a47ea670b442974b53935d1edc7fd64eb21e047a839171b9190a45050565b6119d2828261181d565b6111f4576119df81611a21565b6119ea836020611a33565b6040516020016119fb9291906123b2565b60408051601f198184030181529082905262461bcd60e51b82526106a791600401612427565b60606103096001600160a01b03831660145b60606000611a4283600261243a565b611a4d906002612451565b67ffffffffffffffff811115611a6557611a65611d22565b6040519080825280601f01601f191660200182016040528015611a8f576020820181803683370190505b509050600360fc1b81600081518110611aaa57611aaa6121d5565b60200101906001600160f81b031916908160001a905350600f60fb1b81600181518110611ad957611ad96121d5565b60200101906001600160f81b031916908160001a9053506000611afd84600261243a565b611b08906001612451565b90505b6001811115611b80576f181899199a1a9b1b9c1cb0b131b232b360811b85600f1660108110611b3c57611b3c6121d5565b1a60f81b828281518110611b5257611b526121d5565b60200101906001600160f81b031916908160001a90535060049490941c93611b7981612464565b9050611b0b565b508315611bcf5760405162461bcd60e51b815260206004820181905260248201527f537472696e67733a20686578206c656e67746820696e73756666696369656e7460448201526064016106a7565b9392505050565b600060208284031215611be857600080fd5b81356001600160e01b031981168114611bcf57600080fd5b60005b83811015611c1b578181015183820152602001611c03565b50506000910152565b60008151808452611c3c816020860160208601611c00565b601f01601f19169290920160200192915050565b60006020808301818452808551808352604092508286019150828160051b87010184880160005b83811015611d1457603f19898403018552815160c08151855288820151818a870152611ca582870182611c24565b9150508782015185820389870152611cbd8282611c24565b915050606080830151818701525060808083015186830382880152611ce28382611c24565b9250505060a08083015192508582038187015250611d008183611c24565b968901969450505090860190600101611c77565b509098975050505050505050565b634e487b7160e01b600052604160045260246000fd5b600082601f830112611d4957600080fd5b813567ffffffffffffffff80821115611d6457611d64611d22565b604051601f8301601f19908116603f01168101908282118183101715611d8c57611d8c611d22565b81604052838152866020858801011115611da557600080fd5b836020870160208301376000602085830101528094505050505092915050565b600060208284031215611dd757600080fd5b813567ffffffffffffffff811115611dee57600080fd5b611dfa84828501611d38565b949350505050565b60006020808301818452808551808352604092508286019150828160051b87010184880160005b83811015611d1457603f19898403018552815160c08151855288820151818a870152611e5782870182611c24565b9150508782015185820389870152611e6f8282611c24565b91505060608083015186830382880152611e898382611c24565b92505050608080830151818701525060a08083015192508582038187015250611eb28183611c24565b968901969450505090860190600101611e29565b600060208284031215611ed857600080fd5b5035919050565b600080600080600060a08688031215611ef757600080fd5b853567ffffffffffffffff80821115611f0f57600080fd5b611f1b89838a01611d38565b96506020880135915080821115611f3157600080fd5b611f3d89838a01611d38565b95506040880135915080821115611f5357600080fd5b611f5f89838a01611d38565b94506060880135915080821115611f7557600080fd5b50611f8288828901611d38565b95989497509295608001359392505050565b60008060408385031215611fa757600080fd5b8235915060208301356001600160a01b0381168114611fc557600080fd5b809150509250929050565b60008060008060008060c08789031215611fe957600080fd5b863567ffffffffffffffff8082111561200157600080fd5b61200d8a838b01611d38565b9750602089013591508082111561202357600080fd5b61202f8a838b01611d38565b9650604089013591508082111561204557600080fd5b6120518a838b01611d38565b955060608901359450608089013591508082111561206e57600080fd5b61207a8a838b01611d38565b935060a089013591508082111561209057600080fd5b5061209d89828a01611d38565b9150509295509295509295565b600080604083850312156120bd57600080fd5b823567ffffffffffffffff808211156120d557600080fd5b6120e186838701611d38565b935060208501359150808211156120f757600080fd5b5061210485828601611d38565b9150509250929050565b60006020808301818452808551808352604092508286019150828160051b87010184880160005b83811015611d1457603f1989840301855281516060815181865261215b82870182611c24565b915050888201518582038a8701526121738282611c24565b9150508782015191508481038886015261218d8183611c24565b968901969450505090860190600101612135565b600181811c908216806121b557607f821691505b60208210810361065257634e487b7160e01b600052602260045260246000fd5b634e487b7160e01b600052603260045260246000fd5b634e487b7160e01b600052601160045260246000fd5b600060018201612213576122136121eb565b5060010190565b6000825161222c818460208701611c00565b9190910192915050565b601f82111561104d57600081815260208120601f850160051c8101602086101561225d5750805b601f850160051c820191505b8181101561144157828155600101612269565b815167ffffffffffffffff81111561229657612296611d22565b6122aa816122a484546121a1565b84612236565b602080601f8311600181146122df57600084156122c75750858301515b600019600386901b1c1916600185901b178555611441565b600085815260208120601f198616915b8281101561230e578886015182559484019460019091019084016122ef565b508582101561232c5787850151600019600388901b60f8161c191681555b5050505050600190811b01905550565b600080835461234a816121a1565b600182811680156123625760018114612377576123a6565b60ff19841687528215158302870194506123a6565b8760005260208060002060005b8581101561239d5781548a820152908401908201612384565b50505082870194505b50929695505050505050565b7f416363657373436f6e74726f6c3a206163636f756e74200000000000000000008152600083516123ea816017850160208801611c00565b7001034b99036b4b9b9b4b733903937b6329607d1b601791840191820152835161241b816028840160208801611c00565b01602801949350505050565b602081526000611bcf6020830184611c24565b8082028115828204841417610309576103096121eb565b80820180821115610309576103096121eb565b600081612473576124736121eb565b50600019019056fea2646970667358221220585eadaa482ca9fc18ce6e2df4ed609d96a713c733133e5e92c23933fdd0aab564736f6c63430008130033",
  "immutableReferences": {},
  "source": "// SPDX-License-Identifier: MIT \npragma solidity ^0.8.12;\n\nimport \"@openzeppelin/contracts/access/AccessControl.sol\";\n\ncontract Product is AccessControl {\n\n    bytes32 public constant MANUFACTURER = keccak256(\"MANUFACTURER\");\n    uint256 private sellerCount;\n    uint256 private productCount;\n\n    address public manufacturer = 0x55004BeC89175244026f7735Ff07924C41eE84F8;\n\n    struct Seller {\n        uint256 sellerId;\n        string sellerName;\n        string sellerBrand;\n        uint256 sellerNum;\n        string sellerManager;\n        string sellerAddress;\n    }\n    mapping(uint256 => Seller) private sellers;\n\n    struct ProductItem {\n        uint256 productId;\n        string productSN;\n        string productName;\n        string productBrand;\n        uint256 productPrice;\n        string productStatus;\n    }\n\n    struct ProductInfo {\n        string productSN;\n        string sellerAddress;\n        string manufacturerCode;\n    }\n\n    mapping(uint256 => ProductItem) private productItems;\n    mapping(string => uint256) private productMap;\n    mapping(string => string) private productsManufactured;\n    mapping(string => string) private productsForSale;\n    mapping(string => string) private productsSold;\n    mapping(string => string[]) private productsWithSeller;\n    mapping(string => string[]) private productsWithConsumer;\n    mapping(string => string[]) private sellersWithManufacturer;\n\n    constructor() {\n        _setupRole(MANUFACTURER, manufacturer);\n    }\n\n    // SELLER SECTION\n\n    function addSeller(\n        string memory _manufacturerId,\n        string memory _sellerName,\n        string memory _sellerBrand,\n        uint256 _sellerNum,\n        string memory _sellerManager,\n        string memory _sellerAddress\n    ) public onlyRole(MANUFACTURER) {\n        sellers[sellerCount] = Seller(\n            sellerCount, _sellerName, _sellerBrand, _sellerNum, _sellerManager, _sellerAddress\n        );\n        sellerCount++;\n        sellersWithManufacturer[_manufacturerId].push(_sellerAddress);\n    }\n\n    function viewSellers() public view returns (\n        Seller[] memory\n    ) {\n        Seller[] memory allSellers = new Seller[](sellerCount);\n        for (uint256 i = 0; i < sellerCount; i++) {\n            allSellers[i] = sellers[i];\n        }\n        return allSellers;\n    }\n\n    // PRODUCT SECTION\n\n    function addProduct(\n        string memory _manufacturerID,\n        string memory _productName,\n        string memory _productSN,\n        string memory _productBrand,\n        uint256 _productPrice\n    ) public onlyRole(MANUFACTURER) {\n        productItems[productCount] = ProductItem(\n            productCount, _productSN, _productName, _productBrand, _productPrice, \"Available\"\n        );\n        productMap[_productSN] = productCount;\n        productCount++;\n        productsManufactured[_productSN] = _manufacturerID;\n    }\n\n    function viewProductItems() public view returns (\n        ProductItem[] memory\n    ) {\n        ProductItem[] memory allProducts = new ProductItem[](productCount);\n        for (uint256 i = 0; i < productCount; i++) {\n            allProducts[i] = productItems[i];\n        }\n        return allProducts;\n    }\n\n    //SELL Product\n\n    function manufacturerSellProduct(string memory _productSN, string memory _sellerAddress) public{\n        productsWithSeller[_sellerAddress].push(_productSN);\n        productsForSale[_productSN] = _sellerAddress;\n\n    }\n\n    function sellerSellProduct(string memory _productSN, string memory _consumerCode) public {   \n        uint256 j = 0;\n        bool found = false;\n\n        if(productCount > 0) {\n            for(uint256 i = 0; i < productCount; i++) {\n                if(keccak256(abi.encodePacked(productItems[i].productSN)) == keccak256(abi.encodePacked(_productSN))) {\n                    j = i;\n                    found = true;\n                    break;\n                }\n            }\n        }\n\n        require(found, \"Product not found\");\n        \n        bool isAvailable = keccak256(abi.encodePacked(productItems[j].productStatus)) == keccak256(abi.encodePacked(\"Available\"));\n        require(isAvailable, \"Product is not available for sale\");\n\n        productItems[j].productStatus = \"NA\";\n        productsWithConsumer[_consumerCode].push(_productSN);\n        productsSold[_productSN] = _consumerCode;\n    }\n\n    function queryProductsList(string memory _sellerAddress) \n    public view returns (ProductItem[] memory) \n    {\n        require(bytes(_sellerAddress).length > 0, \"Seller code cannot be empty\");\n\n        string[] memory productSNs = productsWithSeller[_sellerAddress];\n        uint256 matchCount = 0;\n\n        // First pass: count matching products\n        for (uint256 i = 0; i < productSNs.length; i++) {\n            if (bytes(productSNs[i]).length > 0) {\n                matchCount++;\n            }\n        }\n\n        // Initialize array with the correct size\n        ProductItem[] memory products = new ProductItem[](matchCount);\n\n        // Second pass: fill array\n        uint256 currentIndex = 0;\n        for (uint256 i = 0; i < productSNs.length; i++) {\n            string memory currentSN = productSNs[i];\n            if (bytes(currentSN).length > 0) {\n                uint256 productId = productMap[currentSN];\n                products[currentIndex] = productItems[productId];\n                currentIndex++;\n            }\n        }\n\n        return products;\n    }\n\n\n    function getPurchaseHistory(string memory _consumerCode) public view returns (ProductInfo[] memory) {\n        string[] memory productSNs = productsWithConsumer[_consumerCode];\n        ProductInfo[] memory productInfos = new ProductInfo[](productSNs.length);\n\n        for (uint i = 0; i < productSNs.length; i++) {\n            productInfos[i] = ProductInfo({\n                productSN: productSNs[i],\n                sellerAddress: productsForSale[productSNs[i]],\n                manufacturerCode: productsManufactured[productSNs[i]]\n            });\n        }\n\n        return productInfos;\n    }\n\n    function verifyProduct(string memory _productSN, string memory _consumerCode) public view returns (bool) {\n        return keccak256(abi.encodePacked(productsSold[_productSN])) == keccak256(abi.encodePacked(_consumerCode));\n    }\n}",
  "sourcePath": "E:\\GENXRVERSE\\products\\fakeproduct\\fake-product-identification\\contracts\\Product.sol",
  "compiler": {
    "name": "solc",
    "version": "0.8.19+commit.7dd6d404.Emscripten.clang"
  },
  "schemaVersion": "3.4.4",
  "updatedAt": "2025-02-19T05:09:43.395Z",
  "networkType": "ethereum",
  "devdoc": {
    "events": {
      "RoleAdminChanged(bytes32,bytes32,bytes32)": {
        "details": "Emitted when `newAdminRole` is set as ``role``'s admin role, replacing `previousAdminRole` `DEFAULT_ADMIN_ROLE` is the starting admin for all roles, despite {RoleAdminChanged} not being emitted signaling this. _Available since v3.1._"
      },
      "RoleGranted(bytes32,address,address)": {
        "details": "Emitted when `account` is granted `role`. `sender` is the account that originated the contract call, an admin role bearer except when using {AccessControl-_setupRole}."
      },
      "RoleRevoked(bytes32,address,address)": {
        "details": "Emitted when `account` is revoked `role`. `sender` is the account that originated the contract call:   - if using `revokeRole`, it is the admin role bearer   - if using `renounceRole`, it is the role bearer (i.e. `account`)"
      }
    },
    "kind": "dev",
    "methods": {
      "getRoleAdmin(bytes32)": {
        "details": "Returns the admin role that controls `role`. See {grantRole} and {revokeRole}. To change a role's admin, use {_setRoleAdmin}."
      },
      "grantRole(bytes32,address)": {
        "details": "Grants `role` to `account`. If `account` had not been already granted `role`, emits a {RoleGranted} event. Requirements: - the caller must have ``role``'s admin role. May emit a {RoleGranted} event."
      },
      "hasRole(bytes32,address)": {
        "details": "Returns `true` if `account` has been granted `role`."
      },
      "renounceRole(bytes32,address)": {
        "details": "Revokes `role` from the calling account. Roles are often managed via {grantRole} and {revokeRole}: this function's purpose is to provide a mechanism for accounts to lose their privileges if they are compromised (such as when a trusted device is misplaced). If the calling account had been revoked `role`, emits a {RoleRevoked} event. Requirements: - the caller must be `account`. May emit a {RoleRevoked} event."
      },
      "revokeRole(bytes32,address)": {
        "details": "Revokes `role` from `account`. If `account` had been granted `role`, emits a {RoleRevoked} event. Requirements: - the caller must have ``role``'s admin role. May emit a {RoleRevoked} event."
      },
      "supportsInterface(bytes4)": {
        "details": "See {IERC165-supportsInterface}."
      }
    },
    "version": 1
  },
  "userdoc": {
    "kind": "user",
    "methods": {},
    "version": 1
  }
}