{
  "contractName": "Product",
  "abi": [
    {
      "inputs": [],
      "stateMutability": "nonpayable",
      "type": "constructor"
    },
    {
      "anonymous": false,
      "inputs": [
        {
          "indexed": true,
          "internalType": "bytes32",
          "name": "role",
          "type": "bytes32"
        },
        {
          "indexed": true,
          "internalType": "bytes32",
          "name": "previousAdminRole",
          "type": "bytes32"
        },
        {
          "indexed": true,
          "internalType": "bytes32",
          "name": "newAdminRole",
          "type": "bytes32"
        }
      ],
      "name": "RoleAdminChanged",
      "type": "event"
    },
    {
      "anonymous": false,
      "inputs": [
        {
          "indexed": true,
          "internalType": "bytes32",
          "name": "role",
          "type": "bytes32"
        },
        {
          "indexed": true,
          "internalType": "address",
          "name": "account",
          "type": "address"
        },
        {
          "indexed": true,
          "internalType": "address",
          "name": "sender",
          "type": "address"
        }
      ],
      "name": "RoleGranted",
      "type": "event"
    },
    {
      "anonymous": false,
      "inputs": [
        {
          "indexed": true,
          "internalType": "bytes32",
          "name": "role",
          "type": "bytes32"
        },
        {
          "indexed": true,
          "internalType": "address",
          "name": "account",
          "type": "address"
        },
        {
          "indexed": true,
          "internalType": "address",
          "name": "sender",
          "type": "address"
        }
      ],
      "name": "RoleRevoked",
      "type": "event"
    },
    {
      "inputs": [],
      "name": "DEFAULT_ADMIN_ROLE",
      "outputs": [
        {
          "internalType": "bytes32",
          "name": "",
          "type": "bytes32"
        }
      ],
      "stateMutability": "view",
      "type": "function"
    },
    {
      "inputs": [],
      "name": "MANUFACTURER",
      "outputs": [
        {
          "internalType": "bytes32",
          "name": "",
          "type": "bytes32"
        }
      ],
      "stateMutability": "view",
      "type": "function"
    },
    {
      "inputs": [
        {
          "internalType": "bytes32",
          "name": "role",
          "type": "bytes32"
        }
      ],
      "name": "getRoleAdmin",
      "outputs": [
        {
          "internalType": "bytes32",
          "name": "",
          "type": "bytes32"
        }
      ],
      "stateMutability": "view",
      "type": "function"
    },
    {
      "inputs": [
        {
          "internalType": "bytes32",
          "name": "role",
          "type": "bytes32"
        },
        {
          "internalType": "address",
          "name": "account",
          "type": "address"
        }
      ],
      "name": "grantRole",
      "outputs": [],
      "stateMutability": "nonpayable",
      "type": "function"
    },
    {
      "inputs": [
        {
          "internalType": "bytes32",
          "name": "role",
          "type": "bytes32"
        },
        {
          "internalType": "address",
          "name": "account",
          "type": "address"
        }
      ],
      "name": "hasRole",
      "outputs": [
        {
          "internalType": "bool",
          "name": "",
          "type": "bool"
        }
      ],
      "stateMutability": "view",
      "type": "function"
    },
    {
      "inputs": [],
      "name": "manufacturer",
      "outputs": [
        {
          "internalType": "address",
          "name": "",
          "type": "address"
        }
      ],
      "stateMutability": "view",
      "type": "function"
    },
    {
      "inputs": [
        {
          "internalType": "bytes32",
          "name": "role",
          "type": "bytes32"
        },
        {
          "internalType": "address",
          "name": "account",
          "type": "address"
        }
      ],
      "name": "renounceRole",
      "outputs": [],
      "stateMutability": "nonpayable",
      "type": "function"
    },
    {
      "inputs": [
        {
          "internalType": "bytes32",
          "name": "role",
          "type": "bytes32"
        },
        {
          "internalType": "address",
          "name": "account",
          "type": "address"
        }
      ],
      "name": "revokeRole",
      "outputs": [],
      "stateMutability": "nonpayable",
      "type": "function"
    },
    {
      "inputs": [
        {
          "internalType": "bytes4",
          "name": "interfaceId",
          "type": "bytes4"
        }
      ],
      "name": "supportsInterface",
      "outputs": [
        {
          "internalType": "bool",
          "name": "",
          "type": "bool"
        }
      ],
      "stateMutability": "view",
      "type": "function"
    },
    {
      "inputs": [
        {
          "internalType": "string",
          "name": "_manufacturerId",
          "type": "string"
        },
        {
          "internalType": "string",
          "name": "_sellerName",
          "type": "string"
        },
        {
          "internalType": "string",
          "name": "_sellerBrand",
          "type": "string"
        },
        {
          "internalType": "uint256",
          "name": "_sellerNum",
          "type": "uint256"
        },
        {
          "internalType": "string",
          "name": "_sellerManager",
          "type": "string"
        },
        {
          "internalType": "string",
          "name": "_sellerAddress",
          "type": "string"
        }
      ],
      "name": "addSeller",
      "outputs": [],
      "stateMutability": "nonpayable",
      "type": "function"
    },
    {
      "inputs": [],
      "name": "viewSellers",
      "outputs": [
        {
          "components": [
            {
              "internalType": "uint256",
              "name": "sellerId",
              "type": "uint256"
            },
            {
              "internalType": "string",
              "name": "sellerName",
              "type": "string"
            },
            {
              "internalType": "string",
              "name": "sellerBrand",
              "type": "string"
            },
            {
              "internalType": "uint256",
              "name": "sellerNum",
              "type": "uint256"
            },
            {
              "internalType": "string",
              "name": "sellerManager",
              "type": "string"
            },
            {
              "internalType": "string",
              "name": "sellerAddress",
              "type": "string"
            }
          ],
          "internalType": "struct Product.Seller[]",
          "name": "",
          "type": "tuple[]"
        }
      ],
      "stateMutability": "view",
      "type": "function"
    },
    {
      "inputs": [
        {
          "internalType": "string",
          "name": "_manufacturerID",
          "type": "string"
        },
        {
          "internalType": "string",
          "name": "_productName",
          "type": "string"
        },
        {
          "internalType": "string",
          "name": "_productSN",
          "type": "string"
        },
        {
          "internalType": "string",
          "name": "_productBrand",
          "type": "string"
        },
        {
          "internalType": "uint256",
          "name": "_productPrice",
          "type": "uint256"
        }
      ],
      "name": "addProduct",
      "outputs": [],
      "stateMutability": "nonpayable",
      "type": "function"
    },
    {
      "inputs": [],
      "name": "viewProductItems",
      "outputs": [
        {
          "components": [
            {
              "internalType": "uint256",
              "name": "productId",
              "type": "uint256"
            },
            {
              "internalType": "string",
              "name": "productSN",
              "type": "string"
            },
            {
              "internalType": "string",
              "name": "productName",
              "type": "string"
            },
            {
              "internalType": "string",
              "name": "productBrand",
              "type": "string"
            },
            {
              "internalType": "uint256",
              "name": "productPrice",
              "type": "uint256"
            },
            {
              "internalType": "string",
              "name": "productStatus",
              "type": "string"
            }
          ],
          "internalType": "struct Product.ProductItem[]",
          "name": "",
          "type": "tuple[]"
        }
      ],
      "stateMutability": "view",
      "type": "function"
    },
    {
      "inputs": [
        {
          "internalType": "string",
          "name": "_productSN",
          "type": "string"
        },
        {
          "internalType": "string",
          "name": "_sellerAddress",
          "type": "string"
        }
      ],
      "name": "manufacturerSellProduct",
      "outputs": [],
      "stateMutability": "nonpayable",
      "type": "function"
    },
    {
      "inputs": [
        {
          "internalType": "string",
          "name": "_productSN",
          "type": "string"
        },
        {
          "internalType": "string",
          "name": "_consumerCode",
          "type": "string"
        }
      ],
      "name": "sellerSellProduct",
      "outputs": [],
      "stateMutability": "nonpayable",
      "type": "function"
    },
    {
      "inputs": [
        {
          "internalType": "string",
          "name": "_sellerAddress",
          "type": "string"
        }
      ],
      "name": "queryProductsList",
      "outputs": [
        {
          "components": [
            {
              "internalType": "uint256",
              "name": "productId",
              "type": "uint256"
            },
            {
              "internalType": "string",
              "name": "productSN",
              "type": "string"
            },
            {
              "internalType": "string",
              "name": "productName",
              "type": "string"
            },
            {
              "internalType": "string",
              "name": "productBrand",
              "type": "string"
            },
            {
              "internalType": "uint256",
              "name": "productPrice",
              "type": "uint256"
            },
            {
              "internalType": "string",
              "name": "productStatus",
              "type": "string"
            }
          ],
          "internalType": "struct Product.ProductItem[]",
          "name": "",
          "type": "tuple[]"
        }
      ],
      "stateMutability": "view",
      "type": "function"
    },
    {
      "inputs": [
        {
          "internalType": "string",
          "name": "_consumerCode",
          "type": "string"
        }
      ],
      "name": "getPurchaseHistory",
      "outputs": [
        {
          "components": [
            {
              "internalType": "string",
              "name": "productSN",
              "type": "string"
            },
            {
              "internalType": "string",
              "name": "sellerAddress",
              "type": "string"
            },
            {
              "internalType": "string",
              "name": "manufacturerCode",
              "type": "string"
            }
          ],
          "internalType": "struct Product.ProductInfo[]",
          "name": "",
          "type": "tuple[]"
        }
      ],
      "stateMutability": "view",
      "type": "function"
    },
    {
      "inputs": [
        {
          "internalType": "string",
          "name": "_productSN",
          "type": "string"
        },
        {
          "internalType": "string",
          "name": "_consumerCode",
          "type": "string"
        }
      ],
      "name": "verifyProduct",
      "outputs": [
        {
          "internalType": "bool",
          "name": "",
          "type": "bool"
        }
      ],
      "stateMutability": "view",
      "type": "function"
    }
  ],
  "bytecode": "0x6080604052600380546001600160a01b0319167355004bec89175244026f7735ff07924c41ee84f81790553480156200003757600080fd5b5060035462000071907f6659d833875b88922d2576dad6c137a09ba676496bb2010bf8a72397792167a0906001600160a01b031662000077565b62000127565b62000083828262000087565b5050565b6000828152602081815260408083206001600160a01b038516845290915290205460ff1662000083576000828152602081815260408083206001600160a01b03851684529091529020805460ff19166001179055620000e33390565b6001600160a01b0316816001600160a01b0316837f2f8788117e7eff1d82e926ec794901d17c78024a50270940304540a733656f0d60405160405180910390a45050565b61262e80620001376000396000f3fe608060405234801561001057600080fd5b50600436106101165760003560e01c806337f0cda2116100a257806380e345a01161007157806380e345a01461027757806391d1485414610297578063a217fddf146102aa578063cf693e81146102b2578063d547741f146102c557600080fd5b806337f0cda2146101ff57806349ec99ee1461021257806351cb74ac14610239578063747542821461024c57600080fd5b8063248a9ca3116100e9578063248a9ca31461018057806325dfbfba146101b15780632f2ff15d146101c657806330e6315a146101d957806336568abe146101ec57600080fd5b806301ffc9a71461011b578063032f95e6146101435780630ad97612146101585780631836bd4b14610178575b600080fd5b61012e610129366004611c78565b6102d8565b60405190151581526020015b60405180910390f35b61014b61030f565b60405161013a9190611cf2565b61016b610166366004611e0d565b610658565b60405161013a9190611e4f565b61016b610b23565b6101a361018e366004611f13565b60009081526020819052604090206001015490565b60405190815260200161013a565b6101c46101bf366004611f2c565b610e66565b005b6101c46101d4366004611ff8565b611064565b6101c46101e7366004612034565b61108e565b6101c46101fa366004611ff8565b611290565b6101c461020d366004612131565b61130e565b6101a37f6659d833875b88922d2576dad6c137a09ba676496bb2010bf8a72397792167a081565b61012e610247366004612131565b6114dd565b60035461025f906001600160a01b031681565b6040516001600160a01b03909116815260200161013a565b61028a610285366004611e0d565b611559565b60405161013a919061219d565b61012e6102a5366004611ff8565b6118b1565b6101a3600081565b6101c46102c0366004612131565b6118da565b6101c46102d3366004611ff8565b61194f565b60006001600160e01b03198216637965db0b60e01b148061030957506301ffc9a760e01b6001600160e01b03198316145b92915050565b6060600060015467ffffffffffffffff81111561032e5761032e612230565b60405190808252806020026020018201604052801561039857816020015b6103856040518060c001604052806000815260200160608152602001606081526020016000815260200160608152602001606081525090565b81526020019060019003908161034c5790505b50905060005b60015481101561065257600460008281526020019081526020016000206040518060c0016040529081600082015481526020016001820180546103e090612246565b80601f016020809104026020016040519081016040528092919081815260200182805461040c90612246565b80156104595780601f1061042e57610100808354040283529160200191610459565b820191906000526020600020905b81548152906001019060200180831161043c57829003601f168201915b5050505050815260200160028201805461047290612246565b80601f016020809104026020016040519081016040528092919081815260200182805461049e90612246565b80156104eb5780601f106104c0576101008083540402835291602001916104eb565b820191906000526020600020905b8154815290600101906020018083116104ce57829003601f168201915b505050505081526020016003820154815260200160048201805461050e90612246565b80601f016020809104026020016040519081016040528092919081815260200182805461053a90612246565b80156105875780601f1061055c57610100808354040283529160200191610587565b820191906000526020600020905b81548152906001019060200180831161056a57829003601f168201915b505050505081526020016005820180546105a090612246565b80601f01602080910402602001604051908101604052809291908181526020018280546105cc90612246565b80156106195780601f106105ee57610100808354040283529160200191610619565b820191906000526020600020905b8154815290600101906020018083116105fc57829003601f168201915b5050505050815250508282815181106106345761063461227a565b6020026020010181905250808061064a906122a6565b91505061039e565b50919050565b6060816106ac5760405162461bcd60e51b815260206004820152601b60248201527f53656c6c657220636f64652063616e6e6f7420626520656d707479000000000060448201526064015b60405180910390fd5b6000600a84846040516106c09291906122bf565b9081526020016040518091039020805480602002602001604051908101604052809291908181526020016000905b8282101561079a57838290600052602060002001805461070d90612246565b80601f016020809104026020016040519081016040528092919081815260200182805461073990612246565b80156107865780601f1061075b57610100808354040283529160200191610786565b820191906000526020600020905b81548152906001019060200180831161076957829003601f168201915b5050505050815260200190600101906106ee565b5050505090506000815167ffffffffffffffff8111156107bc576107bc612230565b60405190808252806020026020018201604052801561082657816020015b6108136040518060c001604052806000815260200160608152602001606081526020016060815260200160008152602001606081525090565b8152602001906001900390816107da5790505b50905060005b8251811015610b1a5760008382815181106108495761084961227a565b60200260200101519050600060068260405161086591906122cf565b9081526040805191829003602090810183205460008181526005835283902060c085019093528254845260018301805491955091840191906108a690612246565b80601f01602080910402602001604051908101604052809291908181526020018280546108d290612246565b801561091f5780601f106108f45761010080835404028352916020019161091f565b820191906000526020600020905b81548152906001019060200180831161090257829003601f168201915b5050505050815260200160028201805461093890612246565b80601f016020809104026020016040519081016040528092919081815260200182805461096490612246565b80156109b15780601f10610986576101008083540402835291602001916109b1565b820191906000526020600020905b81548152906001019060200180831161099457829003601f168201915b505050505081526020016003820180546109ca90612246565b80601f01602080910402602001604051908101604052809291908181526020018280546109f690612246565b8015610a435780601f10610a1857610100808354040283529160200191610a43565b820191906000526020600020905b815481529060010190602001808311610a2657829003601f168201915b5050505050815260200160048201548152602001600582018054610a6690612246565b80601f0160208091040260200160405190810160405280929190818152602001828054610a9290612246565b8015610adf5780601f10610ab457610100808354040283529160200191610adf565b820191906000526020600020905b815481529060010190602001808311610ac257829003601f168201915b505050505081525050848481518110610afa57610afa61227a565b602002602001018190525050508080610b12906122a6565b91505061082c565b50949350505050565b6060600060025467ffffffffffffffff811115610b4257610b42612230565b604051908082528060200260200182016040528015610bac57816020015b610b996040518060c001604052806000815260200160608152602001606081526020016060815260200160008152602001606081525090565b815260200190600190039081610b605790505b50905060005b60025481101561065257600560008281526020019081526020016000206040518060c001604052908160008201548152602001600182018054610bf490612246565b80601f0160208091040260200160405190810160405280929190818152602001828054610c2090612246565b8015610c6d5780601f10610c4257610100808354040283529160200191610c6d565b820191906000526020600020905b815481529060010190602001808311610c5057829003601f168201915b50505050508152602001600282018054610c8690612246565b80601f0160208091040260200160405190810160405280929190818152602001828054610cb290612246565b8015610cff5780601f10610cd457610100808354040283529160200191610cff565b820191906000526020600020905b815481529060010190602001808311610ce257829003601f168201915b50505050508152602001600382018054610d1890612246565b80601f0160208091040260200160405190810160405280929190818152602001828054610d4490612246565b8015610d915780601f10610d6657610100808354040283529160200191610d91565b820191906000526020600020905b815481529060010190602001808311610d7457829003601f168201915b5050505050815260200160048201548152602001600582018054610db490612246565b80601f0160208091040260200160405190810160405280929190818152602001828054610de090612246565b8015610e2d5780601f10610e0257610100808354040283529160200191610e2d565b820191906000526020600020905b815481529060010190602001808311610e1057829003601f168201915b505050505081525050828281518110610e4857610e4861227a565b60200260200101819052508080610e5e906122a6565b915050610bb2565b7f6659d833875b88922d2576dad6c137a09ba676496bb2010bf8a72397792167a0610e9081611974565b6040518060c00160405280600254815260200187878080601f016020809104026020016040519081016040528093929190818152602001838380828437600092019190915250505090825250604080516020601f8c018190048102820181019092528a815291810191908b908b9081908401838280828437600092019190915250505090825250604080516020601f880181900481028201810190925286815291810191908790879081908401838280828437600092018290525093855250505060208083018690526040805180820182526009815268417661696c61626c6560b81b818401529381019390935260025482526005815291902082518155908201516001820190610fa19082612339565b5060408201516002820190610fb69082612339565b5060608201516003820190610fcb9082612339565b506080820151600482015560a08201516005820190610fea9082612339565b50905050600254600687876040516110039291906122bf565b9081526040519081900360200190205560028054906000611023836122a6565b919050555089896007888860405161103c9291906122bf565b908152602001604051809103902091826110579291906123f9565b5050505050505050505050565b60008281526020819052604090206001015461107f81611974565b6110898383611981565b505050565b7f6659d833875b88922d2576dad6c137a09ba676496bb2010bf8a72397792167a06110b881611974565b6040518060c0016040528060015481526020018b8b8080601f016020809104026020016040519081016040528093929190818152602001838380828437600092019190915250505090825250604080516020601f8c018190048102820181019092528a815291810191908b908b9081908401838280828437600092019190915250505090825250602080820189905260408051601f89018390048302810183018252888152920191908890889081908401838280828437600092019190915250505090825250604080516020601f870181900481028201810190925285815291810191908690869081908401838280828437600092018290525093909452505060018054825260046020908152604090922084518155918401519192508201906111e29082612339565b50604082015160028201906111f79082612339565b5060608201516003820155608082015160048201906112169082612339565b5060a0820151600582019061122b9082612339565b5050600180549150600061123e836122a6565b9190505550600c8c8c6040516112559291906122bf565b9081526040516020918190038201902080546001810182556000918252919020016112818385836123f9565b50505050505050505050505050565b6001600160a01b03811633146113005760405162461bcd60e51b815260206004820152602f60248201527f416363657373436f6e74726f6c3a2063616e206f6e6c792072656e6f756e636560448201526e103937b632b9903337b91039b2b63360891b60648201526084016106a3565b61130a8282611a05565b5050565b6000600685856040516113229291906122bf565b908152602001604051809103902054905060025481106113785760405162461bcd60e51b8152602060048201526011602482015270141c9bd91d58dd081b9bdd08199bdd5b99607a1b60448201526064016106a3565b60008181526005602090815260409182902091516113a6910168417661696c61626c6560b81b815260090190565b60405160208183030381529060405280519060200120816005016040516020016113d091906124b9565b604051602081830303815290604052805190602001201461143d5760405162461bcd60e51b815260206004820152602160248201527f50726f64756374206973206e6f7420617661696c61626c6520666f722073616c6044820152606560f81b60648201526084016106a3565b6040805180820190915260028152614e4160f01b602082015260058201906114659082612339565b50600b84846040516114789291906122bf565b9081526040516020918190038201902080546001810182556000918252919020016114a48688836123f9565b508383600988886040516114b99291906122bf565b908152602001604051809103902091826114d49291906123f9565b50505050505050565b600082826040516020016114f29291906122bf565b604051602081830303815290604052805190602001206009868660405161151a9291906122bf565b908152602001604051809103902060405160200161153891906124b9565b60405160208183030381529060405280519060200120149050949350505050565b60606000600b848460405161156f9291906122bf565b9081526020016040518091039020805480602002602001604051908101604052809291908181526020016000905b828210156116495783829060005260206000200180546115bc90612246565b80601f01602080910402602001604051908101604052809291908181526020018280546115e890612246565b80156116355780601f1061160a57610100808354040283529160200191611635565b820191906000526020600020905b81548152906001019060200180831161161857829003601f168201915b50505050508152602001906001019061159d565b5050505090506000815167ffffffffffffffff81111561166b5761166b612230565b6040519080825280602002602001820160405280156116c057816020015b6116ad60405180606001604052806060815260200160608152602001606081525090565b8152602001906001900390816116895790505b50905060005b8251811015610b1a5760405180606001604052808483815181106116ec576116ec61227a565b60200260200101518152602001600885848151811061170d5761170d61227a565b602002602001015160405161172291906122cf565b9081526020016040518091039020805461173b90612246565b80601f016020809104026020016040519081016040528092919081815260200182805461176790612246565b80156117b45780601f10611789576101008083540402835291602001916117b4565b820191906000526020600020905b81548152906001019060200180831161179757829003601f168201915b5050505050815260200160078584815181106117d2576117d261227a565b60200260200101516040516117e791906122cf565b9081526020016040518091039020805461180090612246565b80601f016020809104026020016040519081016040528092919081815260200182805461182c90612246565b80156118795780601f1061184e57610100808354040283529160200191611879565b820191906000526020600020905b81548152906001019060200180831161185c57829003601f168201915b50505050508152508282815181106118935761189361227a565b602002602001018190525080806118a9906122a6565b9150506116c6565b6000918252602082815260408084206001600160a01b0393909316845291905290205460ff1690565b600a82826040516118ec9291906122bf565b9081526040516020918190038201902080546001810182556000918252919020016119188486836123f9565b5081816008868660405161192d9291906122bf565b908152602001604051809103902091826119489291906123f9565b5050505050565b60008281526020819052604090206001015461196a81611974565b6110898383611a05565b61197e8133611a6a565b50565b61198b82826118b1565b61130a576000828152602081815260408083206001600160a01b03851684529091529020805460ff191660011790556119c13390565b6001600160a01b0316816001600160a01b0316837f2f8788117e7eff1d82e926ec794901d17c78024a50270940304540a733656f0d60405160405180910390a45050565b611a0f82826118b1565b1561130a576000828152602081815260408083206001600160a01b0385168085529252808320805460ff1916905551339285917ff6391f5c32d9c69d2a47ea670b442974b53935d1edc7fd64eb21e047a839171b9190a45050565b611a7482826118b1565b61130a57611a8181611ac3565b611a8c836020611ad5565b604051602001611a9d92919061252f565b60408051601f198184030181529082905262461bcd60e51b82526106a3916004016125a4565b60606103096001600160a01b03831660145b60606000611ae48360026125b7565b611aef9060026125ce565b67ffffffffffffffff811115611b0757611b07612230565b6040519080825280601f01601f191660200182016040528015611b31576020820181803683370190505b509050600360fc1b81600081518110611b4c57611b4c61227a565b60200101906001600160f81b031916908160001a905350600f60fb1b81600181518110611b7b57611b7b61227a565b60200101906001600160f81b031916908160001a9053506000611b9f8460026125b7565b611baa9060016125ce565b90505b6001811115611c22576f181899199a1a9b1b9c1cb0b131b232b360811b85600f1660108110611bde57611bde61227a565b1a60f81b828281518110611bf457611bf461227a565b60200101906001600160f81b031916908160001a90535060049490941c93611c1b816125e1565b9050611bad565b508315611c715760405162461bcd60e51b815260206004820181905260248201527f537472696e67733a20686578206c656e67746820696e73756666696369656e7460448201526064016106a3565b9392505050565b600060208284031215611c8a57600080fd5b81356001600160e01b031981168114611c7157600080fd5b60005b83811015611cbd578181015183820152602001611ca5565b50506000910152565b60008151808452611cde816020860160208601611ca2565b601f01601f19169290920160200192915050565b60006020808301818452808551808352604092508286019150828160051b87010184880160005b83811015611db657603f19898403018552815160c08151855288820151818a870152611d4782870182611cc6565b9150508782015185820389870152611d5f8282611cc6565b915050606080830151818701525060808083015186830382880152611d848382611cc6565b9250505060a08083015192508582038187015250611da28183611cc6565b968901969450505090860190600101611d19565b509098975050505050505050565b60008083601f840112611dd657600080fd5b50813567ffffffffffffffff811115611dee57600080fd5b602083019150836020828501011115611e0657600080fd5b9250929050565b60008060208385031215611e2057600080fd5b823567ffffffffffffffff811115611e3757600080fd5b611e4385828601611dc4565b90969095509350505050565b60006020808301818452808551808352604092508286019150828160051b87010184880160005b83811015611db657603f19898403018552815160c08151855288820151818a870152611ea482870182611cc6565b9150508782015185820389870152611ebc8282611cc6565b91505060608083015186830382880152611ed68382611cc6565b92505050608080830151818701525060a08083015192508582038187015250611eff8183611cc6565b968901969450505090860190600101611e76565b600060208284031215611f2557600080fd5b5035919050565b600080600080600080600080600060a08a8c031215611f4a57600080fd5b893567ffffffffffffffff80821115611f6257600080fd5b611f6e8d838e01611dc4565b909b50995060208c0135915080821115611f8757600080fd5b611f938d838e01611dc4565b909950975060408c0135915080821115611fac57600080fd5b611fb88d838e01611dc4565b909750955060608c0135915080821115611fd157600080fd5b50611fde8c828d01611dc4565b9a9d999c50979a9699959894979660800135949350505050565b6000806040838503121561200b57600080fd5b8235915060208301356001600160a01b038116811461202957600080fd5b809150509250929050565b600080600080600080600080600080600060c08c8e03121561205557600080fd5b67ffffffffffffffff808d35111561206c57600080fd5b6120798e8e358f01611dc4565b909c509a5060208d013581101561208f57600080fd5b61209f8e60208f01358f01611dc4565b909a50985060408d01358110156120b557600080fd5b6120c58e60408f01358f01611dc4565b909850965060608d0135955060808d01358110156120e257600080fd5b6120f28e60808f01358f01611dc4565b909550935060a08d013581101561210857600080fd5b506121198d60a08e01358e01611dc4565b81935080925050509295989b509295989b9093969950565b6000806000806040858703121561214757600080fd5b843567ffffffffffffffff8082111561215f57600080fd5b61216b88838901611dc4565b9096509450602087013591508082111561218457600080fd5b5061219187828801611dc4565b95989497509550505050565b60006020808301818452808551808352604092508286019150828160051b87010184880160005b83811015611db657603f198984030185528151606081518186526121ea82870182611cc6565b915050888201518582038a8701526122028282611cc6565b9150508782015191508481038886015261221c8183611cc6565b9689019694505050908601906001016121c4565b634e487b7160e01b600052604160045260246000fd5b600181811c9082168061225a57607f821691505b60208210810361065257634e487b7160e01b600052602260045260246000fd5b634e487b7160e01b600052603260045260246000fd5b634e487b7160e01b600052601160045260246000fd5b6000600182016122b8576122b8612290565b5060010190565b8183823760009101908152919050565b600082516122e1818460208701611ca2565b9190910192915050565b601f82111561108957600081815260208120601f850160051c810160208610156123125750805b601f850160051c820191505b818110156123315782815560010161231e565b505050505050565b815167ffffffffffffffff81111561235357612353612230565b612367816123618454612246565b846122eb565b602080601f83116001811461239c57600084156123845750858301515b600019600386901b1c1916600185901b178555612331565b600085815260208120601f198616915b828110156123cb578886015182559484019460019091019084016123ac565b50858210156123e95787850151600019600388901b60f8161c191681555b5050505050600190811b01905550565b67ffffffffffffffff83111561241157612411612230565b6124258361241f8354612246565b836122eb565b6000601f84116001811461245957600085156124415750838201355b600019600387901b1c1916600186901b178355611948565b600083815260209020601f19861690835b8281101561248a578685013582556020948501946001909201910161246a565b50868210156124a75760001960f88860031b161c19848701351681555b505060018560011b0183555050505050565b60008083546124c781612246565b600182811680156124df57600181146124f457612523565b60ff1984168752821515830287019450612523565b8760005260208060002060005b8581101561251a5781548a820152908401908201612501565b50505082870194505b50929695505050505050565b7f416363657373436f6e74726f6c3a206163636f756e7420000000000000000000815260008351612567816017850160208801611ca2565b7001034b99036b4b9b9b4b733903937b6329607d1b6017918401918201528351612598816028840160208801611ca2565b01602801949350505050565b602081526000611c716020830184611cc6565b808202811582820484141761030957610309612290565b8082018082111561030957610309612290565b6000816125f0576125f0612290565b50600019019056fea26469706673582212206e42928552eff540f30608d55548321dbdaa7f2b88f7e9679281d6678d61ab8764736f6c63430008130033",
  "immutableReferences": {},
  "source": "// SPDX-License-Identifier: MIT \n\npragma solidity ^0.8.12;\n\nimport \"@openzeppelin/contracts/access/AccessControl.sol\";\n\ncontract Product is AccessControl {\n\n    bytes32 public constant MANUFACTURER = keccak256(\"MANUFACTURER\");\n    uint256 private sellerCount;\n    uint256 private productCount;\n\n    address public manufacturer = 0x55004BeC89175244026f7735Ff07924C41eE84F8;\n\n    struct Seller {\n        uint256 sellerId;\n        string sellerName;\n        string sellerBrand;\n        uint256 sellerNum;\n        string sellerManager;\n        string sellerAddress;\n    }\n    mapping(uint256 => Seller) private sellers;\n\n    struct ProductItem {\n        uint256 productId;\n        string productSN;\n        string productName;\n        string productBrand;\n        uint256 productPrice;\n        string productStatus;\n    }\n\n    struct ProductInfo {\n        string productSN;\n        string sellerAddress;\n        string manufacturerCode;\n    }\n\n    mapping(uint256 => ProductItem) private productItems;\n    mapping(string => uint256) private productMap;\n    mapping(string => string) private productsManufactured;\n    mapping(string => string) private productsForSale;\n    mapping(string => string) private productsSold;\n    mapping(string => string[]) private productsWithSeller;\n    mapping(string => string[]) private productsWithConsumer;\n    mapping(string => string[]) private sellersWithManufacturer;\n\n    constructor() {\n        _setupRole(MANUFACTURER, manufacturer);\n    }\n\n    // SELLER SECTION\n    function addSeller(\n        string calldata _manufacturerId,\n        string calldata _sellerName,\n        string calldata _sellerBrand,\n        uint256 _sellerNum,\n        string calldata _sellerManager,\n        string calldata _sellerAddress\n    ) external onlyRole(MANUFACTURER) {\n        sellers[sellerCount] = Seller(\n            sellerCount, _sellerName, _sellerBrand, _sellerNum, _sellerManager, _sellerAddress\n        );\n        sellerCount++;\n        sellersWithManufacturer[_manufacturerId].push(_sellerAddress);\n    }\n\n    function viewSellers() external view returns (Seller[] memory) {\n        Seller[] memory allSellers = new Seller[](sellerCount);\n        for (uint256 i = 0; i < sellerCount; i++) {\n            allSellers[i] = sellers[i];\n        }\n        return allSellers;\n    }\n\n    // PRODUCT SECTION\n    function addProduct(\n        string calldata _manufacturerID,\n        string calldata _productName,\n        string calldata _productSN,\n        string calldata _productBrand,\n        uint256 _productPrice\n    ) external onlyRole(MANUFACTURER) {\n        productItems[productCount] = ProductItem(\n            productCount, _productSN, _productName, _productBrand, _productPrice, \"Available\"\n        );\n        productMap[_productSN] = productCount;\n        productCount++;\n        productsManufactured[_productSN] = _manufacturerID;\n    }\n\n    function viewProductItems() external view returns (ProductItem[] memory) {\n        ProductItem[] memory allProducts = new ProductItem[](productCount);\n        for (uint256 i = 0; i < productCount; i++) {\n            allProducts[i] = productItems[i];\n        }\n        return allProducts;\n    }\n\n    //SELL Product\n    function manufacturerSellProduct(string calldata _productSN, string calldata _sellerAddress) external {\n        productsWithSeller[_sellerAddress].push(_productSN);\n        productsForSale[_productSN] = _sellerAddress;\n    }\n\n    function sellerSellProduct(string calldata _productSN, string calldata _consumerCode) external {\n        uint256 productId = productMap[_productSN];\n        require(productId < productCount, \"Product not found\");\n\n        ProductItem storage product = productItems[productId];\n        require(keccak256(abi.encodePacked(product.productStatus)) == keccak256(abi.encodePacked(\"Available\")), \"Product is not available for sale\");\n\n        product.productStatus = \"NA\";\n        productsWithConsumer[_consumerCode].push(_productSN);\n        productsSold[_productSN] = _consumerCode;\n    }\n\n    function queryProductsList(string calldata _sellerAddress) external view returns (ProductItem[] memory) {\n        require(bytes(_sellerAddress).length > 0, \"Seller code cannot be empty\");\n\n        string[] memory productSNs = productsWithSeller[_sellerAddress];\n        ProductItem[] memory products = new ProductItem[](productSNs.length);\n\n        for (uint256 i = 0; i < productSNs.length; i++) {\n            string memory currentSN = productSNs[i];\n            uint256 productId = productMap[currentSN];\n            products[i] = productItems[productId];\n        }\n\n        return products;\n    }\n\n    function getPurchaseHistory(string calldata _consumerCode) external view returns (ProductInfo[] memory) {\n        string[] memory productSNs = productsWithConsumer[_consumerCode];\n        ProductInfo[] memory productInfos = new ProductInfo[](productSNs.length);\n\n        for (uint i = 0; i < productSNs.length; i++) {\n            productInfos[i] = ProductInfo({\n                productSN: productSNs[i],\n                sellerAddress: productsForSale[productSNs[i]],\n                manufacturerCode: productsManufactured[productSNs[i]]\n            });\n        }\n\n        return productInfos;\n    }\n\n    function verifyProduct(string calldata _productSN, string calldata _consumerCode) external view returns (bool) {\n        return keccak256(abi.encodePacked(productsSold[_productSN])) == keccak256(abi.encodePacked(_consumerCode));\n    }\n}\n// pragma solidity ^0.8.12;\n\n// import \"@openzeppelin/contracts/access/AccessControl.sol\";\n\n// contract Product is AccessControl {\n\n//     bytes32 public constant MANUFACTURER = keccak256(\"MANUFACTURER\");\n//     uint256 private sellerCount;\n//     uint256 private productCount;\n\n//     address public manufacturer = 0x55004BeC89175244026f7735Ff07924C41eE84F8;\n\n//     struct Seller {\n//         uint256 sellerId;\n//         string sellerName;\n//         string sellerBrand;\n//         uint256 sellerNum;\n//         string sellerManager;\n//         string sellerAddress;\n//     }\n//     mapping(uint256 => Seller) private sellers;\n\n//     struct ProductItem {\n//         uint256 productId;\n//         string productSN;\n//         string productName;\n//         string productBrand;\n//         uint256 productPrice;\n//         string productStatus;\n//     }\n\n//     struct ProductInfo {\n//         string productSN;\n//         string sellerAddress;\n//         string manufacturerCode;\n//     }\n\n//     mapping(uint256 => ProductItem) private productItems;\n//     mapping(string => uint256) private productMap;\n//     mapping(string => string) private productsManufactured;\n//     mapping(string => string) private productsForSale;\n//     mapping(string => string) private productsSold;\n//     mapping(string => string[]) private productsWithSeller;\n//     mapping(string => string[]) private productsWithConsumer;\n//     mapping(string => string[]) private sellersWithManufacturer;\n\n//     constructor() {\n//         _setupRole(MANUFACTURER, manufacturer);\n//     }\n\n//     // SELLER SECTION\n\n//     function addSeller(\n//         string memory _manufacturerId,\n//         string memory _sellerName,\n//         string memory _sellerBrand,\n//         uint256 _sellerNum,\n//         string memory _sellerManager,\n//         string memory _sellerAddress\n//     ) public onlyRole(MANUFACTURER) {\n//         sellers[sellerCount] = Seller(\n//             sellerCount, _sellerName, _sellerBrand, _sellerNum, _sellerManager, _sellerAddress\n//         );\n//         sellerCount++;\n//         sellersWithManufacturer[_manufacturerId].push(_sellerAddress);\n//     }\n\n//     function viewSellers() public view returns (\n//         Seller[] memory\n//     ) {\n//         Seller[] memory allSellers = new Seller[](sellerCount);\n//         for (uint256 i = 0; i < sellerCount; i++) {\n//             allSellers[i] = sellers[i];\n//         }\n//         return allSellers;\n//     }\n\n//     // PRODUCT SECTION\n\n//     function addProduct(\n//         string memory _manufacturerID,\n//         string memory _productName,\n//         string memory _productSN,\n//         string memory _productBrand,\n//         uint256 _productPrice\n//     ) public onlyRole(MANUFACTURER) {\n//         productItems[productCount] = ProductItem(\n//             productCount, _productSN, _productName, _productBrand, _productPrice, \"Available\"\n//         );\n//         productMap[_productSN] = productCount;\n//         productCount++;\n//         productsManufactured[_productSN] = _manufacturerID;\n//     }\n\n//     function viewProductItems() public view returns (\n//         ProductItem[] memory\n//     ) {\n//         ProductItem[] memory allProducts = new ProductItem[](productCount);\n//         for (uint256 i = 0; i < productCount; i++) {\n//             allProducts[i] = productItems[i];\n//         }\n//         return allProducts;\n//     }\n\n//     //SELL Product\n\n//     function manufacturerSellProduct(string memory _productSN, string memory _sellerAddress) public{\n//         productsWithSeller[_sellerAddress].push(_productSN);\n//         productsForSale[_productSN] = _sellerAddress;\n\n//     }\n\n//     function sellerSellProduct(string memory _productSN, string memory _consumerCode) public {   \n//         uint256 j = 0;\n//         bool found = false;\n\n//         if(productCount > 0) {\n//             for(uint256 i = 0; i < productCount; i++) {\n//                 if(keccak256(abi.encodePacked(productItems[i].productSN)) == keccak256(abi.encodePacked(_productSN))) {\n//                     j = i;\n//                     found = true;\n//                     break;\n//                 }\n//             }\n//         }\n\n//         require(found, \"Product not found\");\n        \n//         bool isAvailable = keccak256(abi.encodePacked(productItems[j].productStatus)) == keccak256(abi.encodePacked(\"Available\"));\n//         require(isAvailable, \"Product is not available for sale\");\n\n//         productItems[j].productStatus = \"NA\";\n//         productsWithConsumer[_consumerCode].push(_productSN);\n//         productsSold[_productSN] = _consumerCode;\n//     }\n\n//     function queryProductsList(string memory _sellerAddress) \n//     public view returns (ProductItem[] memory) \n//     {\n//         require(bytes(_sellerAddress).length > 0, \"Seller code cannot be empty\");\n\n//         string[] memory productSNs = productsWithSeller[_sellerAddress];\n//         uint256 matchCount = 0;\n\n//         // First pass: count matching products\n//         for (uint256 i = 0; i < productSNs.length; i++) {\n//             if (bytes(productSNs[i]).length > 0) {\n//                 matchCount++;\n//             }\n//         }\n\n//         // Initialize array with the correct size\n//         ProductItem[] memory products = new ProductItem[](matchCount);\n\n//         // Second pass: fill array\n//         uint256 currentIndex = 0;\n//         for (uint256 i = 0; i < productSNs.length; i++) {\n//             string memory currentSN = productSNs[i];\n//             if (bytes(currentSN).length > 0) {\n//                 uint256 productId = productMap[currentSN];\n//                 products[currentIndex] = productItems[productId];\n//                 currentIndex++;\n//             }\n//         }\n\n//         return products;\n//     }\n\n\n//     function getPurchaseHistory(string memory _consumerCode) public view returns (ProductInfo[] memory) {\n//         string[] memory productSNs = productsWithConsumer[_consumerCode];\n//         ProductInfo[] memory productInfos = new ProductInfo[](productSNs.length);\n\n//         for (uint i = 0; i < productSNs.length; i++) {\n//             productInfos[i] = ProductInfo({\n//                 productSN: productSNs[i],\n//                 sellerAddress: productsForSale[productSNs[i]],\n//                 manufacturerCode: productsManufactured[productSNs[i]]\n//             });\n//         }\n\n//         return productInfos;\n//     }\n\n//     function verifyProduct(string memory _productSN, string memory _consumerCode) public view returns (bool) {\n//         return keccak256(abi.encodePacked(productsSold[_productSN])) == keccak256(abi.encodePacked(_consumerCode));\n//     }\n// }",
  "sourcePath": "E:\\GENXRVERSE\\products\\fakeproduct\\fake-product-identification\\contracts\\Product.sol",
  "compiler": {
    "name": "solc",
    "version": "0.8.19+commit.7dd6d404.Emscripten.clang"
  },
  "schemaVersion": "3.4.4",
  "updatedAt": "2025-02-11T08:28:14.355Z",
  "devdoc": {
    "events": {
      "RoleAdminChanged(bytes32,bytes32,bytes32)": {
        "details": "Emitted when `newAdminRole` is set as ``role``'s admin role, replacing `previousAdminRole` `DEFAULT_ADMIN_ROLE` is the starting admin for all roles, despite {RoleAdminChanged} not being emitted signaling this. _Available since v3.1._"
      },
      "RoleGranted(bytes32,address,address)": {
        "details": "Emitted when `account` is granted `role`. `sender` is the account that originated the contract call, an admin role bearer except when using {AccessControl-_setupRole}."
      },
      "RoleRevoked(bytes32,address,address)": {
        "details": "Emitted when `account` is revoked `role`. `sender` is the account that originated the contract call:   - if using `revokeRole`, it is the admin role bearer   - if using `renounceRole`, it is the role bearer (i.e. `account`)"
      }
    },
    "kind": "dev",
    "methods": {
      "getRoleAdmin(bytes32)": {
        "details": "Returns the admin role that controls `role`. See {grantRole} and {revokeRole}. To change a role's admin, use {_setRoleAdmin}."
      },
      "grantRole(bytes32,address)": {
        "details": "Grants `role` to `account`. If `account` had not been already granted `role`, emits a {RoleGranted} event. Requirements: - the caller must have ``role``'s admin role. May emit a {RoleGranted} event."
      },
      "hasRole(bytes32,address)": {
        "details": "Returns `true` if `account` has been granted `role`."
      },
      "renounceRole(bytes32,address)": {
        "details": "Revokes `role` from the calling account. Roles are often managed via {grantRole} and {revokeRole}: this function's purpose is to provide a mechanism for accounts to lose their privileges if they are compromised (such as when a trusted device is misplaced). If the calling account had been revoked `role`, emits a {RoleRevoked} event. Requirements: - the caller must be `account`. May emit a {RoleRevoked} event."
      },
      "revokeRole(bytes32,address)": {
        "details": "Revokes `role` from `account`. If `account` had been granted `role`, emits a {RoleRevoked} event. Requirements: - the caller must have ``role``'s admin role. May emit a {RoleRevoked} event."
      },
      "supportsInterface(bytes4)": {
        "details": "See {IERC165-supportsInterface}."
      }
    },
    "version": 1
  },
  "userdoc": {
    "kind": "user",
    "methods": {},
    "version": 1
  }
}