{
  "contractName": "Product",
  "abi": [
    {
      "inputs": [],
      "stateMutability": "nonpayable",
      "type": "constructor"
    },
    {
      "anonymous": false,
      "inputs": [
        {
          "indexed": true,
          "internalType": "bytes32",
          "name": "role",
          "type": "bytes32"
        },
        {
          "indexed": true,
          "internalType": "bytes32",
          "name": "previousAdminRole",
          "type": "bytes32"
        },
        {
          "indexed": true,
          "internalType": "bytes32",
          "name": "newAdminRole",
          "type": "bytes32"
        }
      ],
      "name": "RoleAdminChanged",
      "type": "event"
    },
    {
      "anonymous": false,
      "inputs": [
        {
          "indexed": true,
          "internalType": "bytes32",
          "name": "role",
          "type": "bytes32"
        },
        {
          "indexed": true,
          "internalType": "address",
          "name": "account",
          "type": "address"
        },
        {
          "indexed": true,
          "internalType": "address",
          "name": "sender",
          "type": "address"
        }
      ],
      "name": "RoleGranted",
      "type": "event"
    },
    {
      "anonymous": false,
      "inputs": [
        {
          "indexed": true,
          "internalType": "bytes32",
          "name": "role",
          "type": "bytes32"
        },
        {
          "indexed": true,
          "internalType": "address",
          "name": "account",
          "type": "address"
        },
        {
          "indexed": true,
          "internalType": "address",
          "name": "sender",
          "type": "address"
        }
      ],
      "name": "RoleRevoked",
      "type": "event"
    },
    {
      "inputs": [],
      "name": "DEFAULT_ADMIN_ROLE",
      "outputs": [
        {
          "internalType": "bytes32",
          "name": "",
          "type": "bytes32"
        }
      ],
      "stateMutability": "view",
      "type": "function",
      "constant": true
    },
    {
      "inputs": [],
      "name": "MANUFACTURER",
      "outputs": [
        {
          "internalType": "bytes32",
          "name": "",
          "type": "bytes32"
        }
      ],
      "stateMutability": "view",
      "type": "function",
      "constant": true
    },
    {
      "inputs": [
        {
          "internalType": "bytes32",
          "name": "role",
          "type": "bytes32"
        }
      ],
      "name": "getRoleAdmin",
      "outputs": [
        {
          "internalType": "bytes32",
          "name": "",
          "type": "bytes32"
        }
      ],
      "stateMutability": "view",
      "type": "function",
      "constant": true
    },
    {
      "inputs": [
        {
          "internalType": "bytes32",
          "name": "role",
          "type": "bytes32"
        },
        {
          "internalType": "address",
          "name": "account",
          "type": "address"
        }
      ],
      "name": "grantRole",
      "outputs": [],
      "stateMutability": "nonpayable",
      "type": "function"
    },
    {
      "inputs": [
        {
          "internalType": "bytes32",
          "name": "role",
          "type": "bytes32"
        },
        {
          "internalType": "address",
          "name": "account",
          "type": "address"
        }
      ],
      "name": "hasRole",
      "outputs": [
        {
          "internalType": "bool",
          "name": "",
          "type": "bool"
        }
      ],
      "stateMutability": "view",
      "type": "function",
      "constant": true
    },
    {
      "inputs": [],
      "name": "manufacturer",
      "outputs": [
        {
          "internalType": "address",
          "name": "",
          "type": "address"
        }
      ],
      "stateMutability": "view",
      "type": "function",
      "constant": true
    },
    {
      "inputs": [
        {
          "internalType": "bytes32",
          "name": "role",
          "type": "bytes32"
        },
        {
          "internalType": "address",
          "name": "account",
          "type": "address"
        }
      ],
      "name": "renounceRole",
      "outputs": [],
      "stateMutability": "nonpayable",
      "type": "function"
    },
    {
      "inputs": [
        {
          "internalType": "bytes32",
          "name": "role",
          "type": "bytes32"
        },
        {
          "internalType": "address",
          "name": "account",
          "type": "address"
        }
      ],
      "name": "revokeRole",
      "outputs": [],
      "stateMutability": "nonpayable",
      "type": "function"
    },
    {
      "inputs": [
        {
          "internalType": "bytes4",
          "name": "interfaceId",
          "type": "bytes4"
        }
      ],
      "name": "supportsInterface",
      "outputs": [
        {
          "internalType": "bool",
          "name": "",
          "type": "bool"
        }
      ],
      "stateMutability": "view",
      "type": "function",
      "constant": true
    },
    {
      "inputs": [
        {
          "internalType": "string",
          "name": "_manufacturerId",
          "type": "string"
        },
        {
          "internalType": "string",
          "name": "_sellerName",
          "type": "string"
        },
        {
          "internalType": "string",
          "name": "_sellerBrand",
          "type": "string"
        },
        {
          "internalType": "uint256",
          "name": "_sellerNum",
          "type": "uint256"
        },
        {
          "internalType": "string",
          "name": "_sellerManager",
          "type": "string"
        },
        {
          "internalType": "string",
          "name": "_sellerAddress",
          "type": "string"
        }
      ],
      "name": "addSeller",
      "outputs": [],
      "stateMutability": "nonpayable",
      "type": "function"
    },
    {
      "inputs": [],
      "name": "viewSellers",
      "outputs": [
        {
          "components": [
            {
              "internalType": "uint256",
              "name": "sellerId",
              "type": "uint256"
            },
            {
              "internalType": "string",
              "name": "sellerName",
              "type": "string"
            },
            {
              "internalType": "string",
              "name": "sellerBrand",
              "type": "string"
            },
            {
              "internalType": "uint256",
              "name": "sellerNum",
              "type": "uint256"
            },
            {
              "internalType": "string",
              "name": "sellerManager",
              "type": "string"
            },
            {
              "internalType": "string",
              "name": "sellerAddress",
              "type": "string"
            }
          ],
          "internalType": "struct Product.Seller[]",
          "name": "",
          "type": "tuple[]"
        }
      ],
      "stateMutability": "view",
      "type": "function",
      "constant": true
    },
    {
      "inputs": [
        {
          "internalType": "string",
          "name": "_manufacturerID",
          "type": "string"
        },
        {
          "internalType": "string",
          "name": "_productName",
          "type": "string"
        },
        {
          "internalType": "string",
          "name": "_productSN",
          "type": "string"
        },
        {
          "internalType": "string",
          "name": "_productBrand",
          "type": "string"
        },
        {
          "internalType": "uint256",
          "name": "_productPrice",
          "type": "uint256"
        }
      ],
      "name": "addProduct",
      "outputs": [],
      "stateMutability": "nonpayable",
      "type": "function"
    },
    {
      "inputs": [],
      "name": "viewProductItems",
      "outputs": [
        {
          "components": [
            {
              "internalType": "uint256",
              "name": "productId",
              "type": "uint256"
            },
            {
              "internalType": "string",
              "name": "productSN",
              "type": "string"
            },
            {
              "internalType": "string",
              "name": "productName",
              "type": "string"
            },
            {
              "internalType": "string",
              "name": "productBrand",
              "type": "string"
            },
            {
              "internalType": "uint256",
              "name": "productPrice",
              "type": "uint256"
            },
            {
              "internalType": "string",
              "name": "productStatus",
              "type": "string"
            }
          ],
          "internalType": "struct Product.ProductItem[]",
          "name": "",
          "type": "tuple[]"
        }
      ],
      "stateMutability": "view",
      "type": "function",
      "constant": true
    },
    {
      "inputs": [
        {
          "internalType": "string",
          "name": "_productSN",
          "type": "string"
        },
        {
          "internalType": "string",
          "name": "_sellerAddress",
          "type": "string"
        }
      ],
      "name": "manufacturerSellProduct",
      "outputs": [],
      "stateMutability": "nonpayable",
      "type": "function"
    },
    {
      "inputs": [
        {
          "internalType": "string",
          "name": "_productSN",
          "type": "string"
        },
        {
          "internalType": "string",
          "name": "_consumerCode",
          "type": "string"
        }
      ],
      "name": "sellerSellProduct",
      "outputs": [],
      "stateMutability": "nonpayable",
      "type": "function"
    },
    {
      "inputs": [
        {
          "internalType": "string",
          "name": "_sellerAddress",
          "type": "string"
        }
      ],
      "name": "queryProductsList",
      "outputs": [
        {
          "components": [
            {
              "internalType": "uint256",
              "name": "productId",
              "type": "uint256"
            },
            {
              "internalType": "string",
              "name": "productSN",
              "type": "string"
            },
            {
              "internalType": "string",
              "name": "productName",
              "type": "string"
            },
            {
              "internalType": "string",
              "name": "productBrand",
              "type": "string"
            },
            {
              "internalType": "uint256",
              "name": "productPrice",
              "type": "uint256"
            },
            {
              "internalType": "string",
              "name": "productStatus",
              "type": "string"
            }
          ],
          "internalType": "struct Product.ProductItem[]",
          "name": "",
          "type": "tuple[]"
        }
      ],
      "stateMutability": "view",
      "type": "function",
      "constant": true
    },
    {
      "inputs": [
        {
          "internalType": "string",
          "name": "_consumerCode",
          "type": "string"
        }
      ],
      "name": "getPurchaseHistory",
      "outputs": [
        {
          "components": [
            {
              "internalType": "string",
              "name": "productSN",
              "type": "string"
            },
            {
              "internalType": "string",
              "name": "sellerAddress",
              "type": "string"
            },
            {
              "internalType": "string",
              "name": "manufacturerCode",
              "type": "string"
            }
          ],
          "internalType": "struct Product.ProductInfo[]",
          "name": "",
          "type": "tuple[]"
        }
      ],
      "stateMutability": "view",
      "type": "function",
      "constant": true
    },
    {
      "inputs": [
        {
          "internalType": "string",
          "name": "_productSN",
          "type": "string"
        },
        {
          "internalType": "string",
          "name": "_consumerCode",
          "type": "string"
        }
      ],
      "name": "verifyProduct",
      "outputs": [
        {
          "internalType": "bool",
          "name": "",
          "type": "bool"
        }
      ],
      "stateMutability": "view",
      "type": "function",
      "constant": true
    },
    {
      "inputs": [
        {
          "internalType": "address",
          "name": "account",
          "type": "address"
        }
      ],
      "name": "getRole",
      "outputs": [
        {
          "internalType": "string",
          "name": "",
          "type": "string"
        }
      ],
      "stateMutability": "view",
      "type": "function",
      "constant": true
    }
  ],
  "bytecode": "0x60806040527333b5c16d24ff814f040dd6944b8ad19b1af80897600360006101000a81548173ffffffffffffffffffffffffffffffffffffffff021916908373ffffffffffffffffffffffffffffffffffffffff1602179055503480156200006657600080fd5b50620000bb7f6659d833875b88922d2576dad6c137a09ba676496bb2010bf8a72397792167a0600360009054906101000a900473ffffffffffffffffffffffffffffffffffffffff16620000c160201b60201c565b6200023a565b620000d38282620000d760201b60201c565b5050565b620000e98282620001c860201b60201c565b620001c457600160008084815260200190815260200160002060000160008373ffffffffffffffffffffffffffffffffffffffff1673ffffffffffffffffffffffffffffffffffffffff16815260200190815260200160002060006101000a81548160ff021916908315150217905550620001696200023260201b60201c565b73ffffffffffffffffffffffffffffffffffffffff168173ffffffffffffffffffffffffffffffffffffffff16837f2f8788117e7eff1d82e926ec794901d17c78024a50270940304540a733656f0d60405160405180910390a45b5050565b600080600084815260200190815260200160002060000160008373ffffffffffffffffffffffffffffffffffffffff1673ffffffffffffffffffffffffffffffffffffffff16815260200190815260200160002060009054906101000a900460ff16905092915050565b600033905090565b61373b806200024a6000396000f3fe608060405234801561001057600080fd5b50600436106101215760003560e01c806337f0cda2116100ad57806380e345a01161007157806380e345a01461031a57806391d148541461034a578063a217fddf1461037a578063cf693e8114610398578063d547741f146103b457610121565b806337f0cda214610262578063442767331461027e57806349ec99ee146102ae57806351cb74ac146102cc57806374754282146102fc57610121565b8063248a9ca3116100f4578063248a9ca3146101c257806325dfbfba146101f25780632f2ff15d1461020e57806330e6315a1461022a57806336568abe1461024657610121565b806301ffc9a714610126578063032f95e6146101565780630ad97612146101745780631836bd4b146101a4575b600080fd5b610140600480360381019061013b91906124b8565b6103d0565b60405161014d9190612500565b60405180910390f35b61015e61044a565b60405161016b919061272d565b60405180910390f35b61018e60048036038101906101899190612884565b610766565b60405161019b9190612a2d565b60405180910390f35b6101ac610c6c565b6040516101b99190612a2d565b60405180910390f35b6101dc60048036038101906101d79190612a85565b610f88565b6040516101e99190612ac1565b60405180910390f35b61020c60048036038101906102079190612b08565b610fa7565b005b61022860048036038101906102239190612c51565b61114d565b005b610244600480360381019061023f9190612c91565b61116e565b005b610260600480360381019061025b9190612c51565b6112e0565b005b61027c60048036038101906102779190612daa565b611363565b005b61029860048036038101906102939190612e22565b6115e0565b6040516102a59190612e99565b60405180910390f35b6102b66118bc565b6040516102c39190612ac1565b60405180910390f35b6102e660048036038101906102e19190612daa565b6118e0565b6040516102f39190612500565b60405180910390f35b610304611956565b6040516103119190612eca565b60405180910390f35b610334600480360381019061032f9190612884565b61197c565b6040516103419190613005565b60405180910390f35b610364600480360381019061035f9190612c51565b611cc6565b6040516103719190612500565b60405180910390f35b610382611d30565b60405161038f9190612ac1565b60405180910390f35b6103b260048036038101906103ad9190612daa565b611d37565b005b6103ce60048036038101906103c99190612c51565b611dc6565b005b60007f7965db0b000000000000000000000000000000000000000000000000000000007bffffffffffffffffffffffffffffffffffffffffffffffffffffffff1916827bffffffffffffffffffffffffffffffffffffffffffffffffffffffff19161480610443575061044282611de7565b5b9050919050565b6060600060015467ffffffffffffffff81111561046a57610469612759565b5b6040519080825280602002602001820160405280156104a357816020015b61049061231c565b8152602001906001900390816104885790505b50905060005b60015481101561075e57600460008281526020019081526020016000206040518060c0016040529081600082015481526020016001820180546104eb90613056565b80601f016020809104026020016040519081016040528092919081815260200182805461051790613056565b80156105645780601f1061053957610100808354040283529160200191610564565b820191906000526020600020905b81548152906001019060200180831161054757829003601f168201915b5050505050815260200160028201805461057d90613056565b80601f01602080910402602001604051908101604052809291908181526020018280546105a990613056565b80156105f65780601f106105cb576101008083540402835291602001916105f6565b820191906000526020600020905b8154815290600101906020018083116105d957829003601f168201915b505050505081526020016003820154815260200160048201805461061990613056565b80601f016020809104026020016040519081016040528092919081815260200182805461064590613056565b80156106925780601f1061066757610100808354040283529160200191610692565b820191906000526020600020905b81548152906001019060200180831161067557829003601f168201915b505050505081526020016005820180546106ab90613056565b80601f01602080910402602001604051908101604052809291908181526020018280546106d790613056565b80156107245780601f106106f957610100808354040283529160200191610724565b820191906000526020600020905b81548152906001019060200180831161070757829003601f168201915b5050505050815250508282815181106107405761073f613088565b5b60200260200101819052508080610756906130e6565b9150506104a9565b508091505090565b606060008251116107ac576040517f08c379a00000000000000000000000000000000000000000000000000000000081526004016107a39061317b565b60405180910390fd5b6000600a836040516107be91906131d7565b9081526020016040518091039020805480602002602001604051908101604052809291908181526020016000905b8282101561089857838290600052602060002001805461080b90613056565b80601f016020809104026020016040519081016040528092919081815260200182805461083790613056565b80156108845780601f1061085957610100808354040283529160200191610884565b820191906000526020600020905b81548152906001019060200180831161086757829003601f168201915b5050505050815260200190600101906107ec565b5050505090506000805b82518110156108f15760008382815181106108c0576108bf613088565b5b60200260200101515111156108de5781806108da906130e6565b9250505b80806108e9906130e6565b9150506108a2565b5060008167ffffffffffffffff81111561090e5761090d612759565b5b60405190808252806020026020018201604052801561094757816020015b610934612352565b81526020019060019003908161092c5790505b5090506000805b8451811015610c5f57600085828151811061096c5761096b613088565b5b60200260200101519050600081511115610c4b57600060068260405161099291906131d7565b9081526020016040518091039020549050600560008281526020019081526020016000206040518060c0016040529081600082015481526020016001820180546109db90613056565b80601f0160208091040260200160405190810160405280929190818152602001828054610a0790613056565b8015610a545780601f10610a2957610100808354040283529160200191610a54565b820191906000526020600020905b815481529060010190602001808311610a3757829003601f168201915b50505050508152602001600282018054610a6d90613056565b80601f0160208091040260200160405190810160405280929190818152602001828054610a9990613056565b8015610ae65780601f10610abb57610100808354040283529160200191610ae6565b820191906000526020600020905b815481529060010190602001808311610ac957829003601f168201915b50505050508152602001600382018054610aff90613056565b80601f0160208091040260200160405190810160405280929190818152602001828054610b2b90613056565b8015610b785780601f10610b4d57610100808354040283529160200191610b78565b820191906000526020600020905b815481529060010190602001808311610b5b57829003601f168201915b5050505050815260200160048201548152602001600582018054610b9b90613056565b80601f0160208091040260200160405190810160405280929190818152602001828054610bc790613056565b8015610c145780601f10610be957610100808354040283529160200191610c14565b820191906000526020600020905b815481529060010190602001808311610bf757829003601f168201915b505050505081525050858581518110610c3057610c2f613088565b5b60200260200101819052508380610c46906130e6565b945050505b508080610c57906130e6565b91505061094e565b5081945050505050919050565b6060600060025467ffffffffffffffff811115610c8c57610c8b612759565b5b604051908082528060200260200182016040528015610cc557816020015b610cb2612352565b815260200190600190039081610caa5790505b50905060005b600254811015610f8057600560008281526020019081526020016000206040518060c001604052908160008201548152602001600182018054610d0d90613056565b80601f0160208091040260200160405190810160405280929190818152602001828054610d3990613056565b8015610d865780601f10610d5b57610100808354040283529160200191610d86565b820191906000526020600020905b815481529060010190602001808311610d6957829003601f168201915b50505050508152602001600282018054610d9f90613056565b80601f0160208091040260200160405190810160405280929190818152602001828054610dcb90613056565b8015610e185780601f10610ded57610100808354040283529160200191610e18565b820191906000526020600020905b815481529060010190602001808311610dfb57829003601f168201915b50505050508152602001600382018054610e3190613056565b80601f0160208091040260200160405190810160405280929190818152602001828054610e5d90613056565b8015610eaa5780601f10610e7f57610100808354040283529160200191610eaa565b820191906000526020600020905b815481529060010190602001808311610e8d57829003601f168201915b5050505050815260200160048201548152602001600582018054610ecd90613056565b80601f0160208091040260200160405190810160405280929190818152602001828054610ef990613056565b8015610f465780601f10610f1b57610100808354040283529160200191610f46565b820191906000526020600020905b815481529060010190602001808311610f2957829003601f168201915b505050505081525050828281518110610f6257610f61613088565b5b60200260200101819052508080610f78906130e6565b915050610ccb565b508091505090565b6000806000838152602001908152602001600020600101549050919050565b7f6659d833875b88922d2576dad6c137a09ba676496bb2010bf8a72397792167a0610fd181611e51565b6040518060c0016040528060025481526020018581526020018681526020018481526020018381526020016040518060400160405280600981526020017f417661696c61626c650000000000000000000000000000000000000000000000815250815250600560006002548152602001908152602001600020600082015181600001556020820151816001019080519060200190611070929190612388565b50604082015181600201908051906020019061108d929190612388565b5060608201518160030190805190602001906110aa929190612388565b506080820151816004015560a08201518160050190805190602001906110d1929190612388565b509050506002546006856040516110e891906131d7565b9081526020016040518091039020819055506002600081548092919061110d906130e6565b91905055508560078560405161112391906131d7565b90815260200160405180910390209080519060200190611144929190612388565b50505050505050565b61115682610f88565b61115f81611e51565b6111698383611e65565b505050565b7f6659d833875b88922d2576dad6c137a09ba676496bb2010bf8a72397792167a061119881611e51565b6040518060c00160405280600154815260200187815260200186815260200185815260200184815260200183815250600460006001548152602001908152602001600020600082015181600001556020820151816001019080519060200190611202929190612388565b50604082015181600201908051906020019061121f929190612388565b50606082015181600301556080820151816004019080519060200190611246929190612388565b5060a0820151816005019080519060200190611263929190612388565b509050506001600081548092919061127a906130e6565b9190505550600c8760405161128f91906131d7565b9081526020016040518091039020829080600181540180825580915050600190039060005260206000200160009091909190915090805190602001906112d6929190612388565b5050505050505050565b6112e8611f45565b73ffffffffffffffffffffffffffffffffffffffff168173ffffffffffffffffffffffffffffffffffffffff1614611355576040517f08c379a000000000000000000000000000000000000000000000000000000000815260040161134c90613260565b60405180910390fd5b61135f8282611f4d565b5050565b600080600060025411156114085760005b600254811015611406578460405160200161138f91906131d7565b60405160208183030381529060405280519060200120600560008381526020019081526020016000206001016040516020016113cb9190613314565b6040516020818303038152906040528051906020012014156113f35780925060019150611406565b80806113fe906130e6565b915050611374565b505b80611448576040517f08c379a000000000000000000000000000000000000000000000000000000000815260040161143f90613377565b60405180910390fd5b6000604051602001611459906133e3565b60405160208183030381529060405280519060200120600560008581526020019081526020016000206005016040516020016114959190613314565b60405160208183030381529060405280519060200120149050806114ee576040517f08c379a00000000000000000000000000000000000000000000000000000000081526004016114e59061346a565b60405180910390fd5b6040518060400160405280600281526020017f4e4100000000000000000000000000000000000000000000000000000000000081525060056000858152602001908152602001600020600501908051906020019061154d929190612388565b50600b8460405161155e91906131d7565b9081526020016040518091039020859080600181540180825580915050600190039060005260206000200160009091909190915090805190602001906115a5929190612388565b50836009866040516115b791906131d7565b908152602001604051809103902090805190602001906115d8929190612388565b505050505050565b606061160c7f6659d833875b88922d2576dad6c137a09ba676496bb2010bf8a72397792167a083611cc6565b1561164e576040518060400160405280600c81526020017f4d616e756661637475726572000000000000000000000000000000000000000081525090506118b7565b60005b600154811015611715578260405160200161166c91906134d2565b60405160208183030381529060405280519060200120600460008381526020019081526020016000206005016040516020016116a89190613314565b604051602081830303815290604052805190602001201415611702576040518060400160405280600681526020017f53656c6c657200000000000000000000000000000000000000000000000000008152509150506118b7565b808061170d906130e6565b915050611651565b5060005b60025481101561187d5760008360405160200161173691906134d2565b604051602081830303815290604052905060005b600b8260405161175a91906131d7565b90815260200160405180910390208054905081101561186857600560008481526020019081526020016000206001016040516020016117999190613314565b60405160208183030381529060405280519060200120600b836040516117bf91906131d7565b908152602001604051809103902082815481106117df576117de613088565b5b906000526020600020016040516020016117f99190613314565b604051602081830303815290604052805190602001201415611855576040518060400160405280600881526020017f437573746f6d657200000000000000000000000000000000000000000000000081525093505050506118b7565b8080611860906130e6565b91505061174a565b50508080611875906130e6565b915050611719565b506040518060400160405280600781526020017f556e6b6e6f776e0000000000000000000000000000000000000000000000000081525090505b919050565b7f6659d833875b88922d2576dad6c137a09ba676496bb2010bf8a72397792167a081565b6000816040516020016118f391906131d7565b6040516020818303038152906040528051906020012060098460405161191991906131d7565b90815260200160405180910390206040516020016119379190613314565b6040516020818303038152906040528051906020012014905092915050565b600360009054906101000a900473ffffffffffffffffffffffffffffffffffffffff1681565b60606000600b8360405161199091906131d7565b9081526020016040518091039020805480602002602001604051908101604052809291908181526020016000905b82821015611a6a5783829060005260206000200180546119dd90613056565b80601f0160208091040260200160405190810160405280929190818152602001828054611a0990613056565b8015611a565780601f10611a2b57610100808354040283529160200191611a56565b820191906000526020600020905b815481529060010190602001808311611a3957829003601f168201915b5050505050815260200190600101906119be565b5050505090506000815167ffffffffffffffff811115611a8d57611a8c612759565b5b604051908082528060200260200182016040528015611ac657816020015b611ab361240e565b815260200190600190039081611aab5790505b50905060005b8251811015611cbb576040518060600160405280848381518110611af357611af2613088565b5b602002602001015181526020016008858481518110611b1557611b14613088565b5b6020026020010151604051611b2a91906131d7565b90815260200160405180910390208054611b4390613056565b80601f0160208091040260200160405190810160405280929190818152602001828054611b6f90613056565b8015611bbc5780601f10611b9157610100808354040283529160200191611bbc565b820191906000526020600020905b815481529060010190602001808311611b9f57829003601f168201915b505050505081526020016007858481518110611bdb57611bda613088565b5b6020026020010151604051611bf091906131d7565b90815260200160405180910390208054611c0990613056565b80601f0160208091040260200160405190810160405280929190818152602001828054611c3590613056565b8015611c825780601f10611c5757610100808354040283529160200191611c82565b820191906000526020600020905b815481529060010190602001808311611c6557829003601f168201915b5050505050815250828281518110611c9d57611c9c613088565b5b60200260200101819052508080611cb3906130e6565b915050611acc565b508092505050919050565b600080600084815260200190815260200160002060000160008373ffffffffffffffffffffffffffffffffffffffff1673ffffffffffffffffffffffffffffffffffffffff16815260200190815260200160002060009054906101000a900460ff16905092915050565b6000801b81565b600a81604051611d4791906131d7565b908152602001604051809103902082908060018154018082558091505060019003906000526020600020016000909190919091509080519060200190611d8e929190612388565b5080600883604051611da091906131d7565b90815260200160405180910390209080519060200190611dc1929190612388565b505050565b611dcf82610f88565b611dd881611e51565b611de28383611f4d565b505050565b60007f01ffc9a7000000000000000000000000000000000000000000000000000000007bffffffffffffffffffffffffffffffffffffffffffffffffffffffff1916827bffffffffffffffffffffffffffffffffffffffffffffffffffffffff1916149050919050565b611e6281611e5d611f45565b61202e565b50565b611e6f8282611cc6565b611f4157600160008084815260200190815260200160002060000160008373ffffffffffffffffffffffffffffffffffffffff1673ffffffffffffffffffffffffffffffffffffffff16815260200190815260200160002060006101000a81548160ff021916908315150217905550611ee6611f45565b73ffffffffffffffffffffffffffffffffffffffff168173ffffffffffffffffffffffffffffffffffffffff16837f2f8788117e7eff1d82e926ec794901d17c78024a50270940304540a733656f0d60405160405180910390a45b5050565b600033905090565b611f578282611cc6565b1561202a57600080600084815260200190815260200160002060000160008373ffffffffffffffffffffffffffffffffffffffff1673ffffffffffffffffffffffffffffffffffffffff16815260200190815260200160002060006101000a81548160ff021916908315150217905550611fcf611f45565b73ffffffffffffffffffffffffffffffffffffffff168173ffffffffffffffffffffffffffffffffffffffff16837ff6391f5c32d9c69d2a47ea670b442974b53935d1edc7fd64eb21e047a839171b60405160405180910390a45b5050565b6120388282611cc6565b6120af57612045816120b3565b6120538360001c60206120e0565b604051602001612064929190613585565b6040516020818303038152906040526040517f08c379a00000000000000000000000000000000000000000000000000000000081526004016120a69190612e99565b60405180910390fd5b5050565b60606120d98273ffffffffffffffffffffffffffffffffffffffff16601460ff166120e0565b9050919050565b6060600060028360026120f391906135bf565b6120fd9190613619565b67ffffffffffffffff81111561211657612115612759565b5b6040519080825280601f01601f1916602001820160405280156121485781602001600182028036833780820191505090505b5090507f3000000000000000000000000000000000000000000000000000000000000000816000815181106121805761217f613088565b5b60200101907effffffffffffffffffffffffffffffffffffffffffffffffffffffffffffff1916908160001a9053507f7800000000000000000000000000000000000000000000000000000000000000816001815181106121e4576121e3613088565b5b60200101907effffffffffffffffffffffffffffffffffffffffffffffffffffffffffffff1916908160001a9053506000600184600261222491906135bf565b61222e9190613619565b90505b60018111156122ce577f3031323334353637383961626364656600000000000000000000000000000000600f8616601081106122705761226f613088565b5b1a60f81b82828151811061228757612286613088565b5b60200101907effffffffffffffffffffffffffffffffffffffffffffffffffffffffffffff1916908160001a905350600485901c9450806122c79061366f565b9050612231565b5060008414612312576040517f08c379a0000000000000000000000000000000000000000000000000000000008152600401612309906136e5565b60405180910390fd5b8091505092915050565b6040518060c001604052806000815260200160608152602001606081526020016000815260200160608152602001606081525090565b6040518060c001604052806000815260200160608152602001606081526020016060815260200160008152602001606081525090565b82805461239490613056565b90600052602060002090601f0160209004810192826123b657600085556123fd565b82601f106123cf57805160ff19168380011785556123fd565b828001600101855582156123fd579182015b828111156123fc5782518255916020019190600101906123e1565b5b50905061240a919061242f565b5090565b60405180606001604052806060815260200160608152602001606081525090565b5b80821115612448576000816000905550600101612430565b5090565b6000604051905090565b600080fd5b600080fd5b60007fffffffff0000000000000000000000000000000000000000000000000000000082169050919050565b61249581612460565b81146124a057600080fd5b50565b6000813590506124b28161248c565b92915050565b6000602082840312156124ce576124cd612456565b5b60006124dc848285016124a3565b91505092915050565b60008115159050919050565b6124fa816124e5565b82525050565b600060208201905061251560008301846124f1565b92915050565b600081519050919050565b600082825260208201905092915050565b6000819050602082019050919050565b6000819050919050565b61255a81612547565b82525050565b600081519050919050565b600082825260208201905092915050565b60005b8381101561259a57808201518184015260208101905061257f565b838111156125a9576000848401525b50505050565b6000601f19601f8301169050919050565b60006125cb82612560565b6125d5818561256b565b93506125e581856020860161257c565b6125ee816125af565b840191505092915050565b600060c0830160008301516126116000860182612551565b506020830151848203602086015261262982826125c0565b9150506040830151848203604086015261264382826125c0565b91505060608301516126586060860182612551565b506080830151848203608086015261267082826125c0565b91505060a083015184820360a086015261268a82826125c0565b9150508091505092915050565b60006126a383836125f9565b905092915050565b6000602082019050919050565b60006126c38261251b565b6126cd8185612526565b9350836020820285016126df85612537565b8060005b8581101561271b57848403895281516126fc8582612697565b9450612707836126ab565b925060208a019950506001810190506126e3565b50829750879550505050505092915050565b6000602082019050818103600083015261274781846126b8565b905092915050565b600080fd5b600080fd5b7f4e487b7100000000000000000000000000000000000000000000000000000000600052604160045260246000fd5b612791826125af565b810181811067ffffffffffffffff821117156127b0576127af612759565b5b80604052505050565b60006127c361244c565b90506127cf8282612788565b919050565b600067ffffffffffffffff8211156127ef576127ee612759565b5b6127f8826125af565b9050602081019050919050565b82818337600083830152505050565b6000612827612822846127d4565b6127b9565b90508281526020810184848401111561284357612842612754565b5b61284e848285612805565b509392505050565b600082601f83011261286b5761286a61274f565b5b813561287b848260208601612814565b91505092915050565b60006020828403121561289a57612899612456565b5b600082013567ffffffffffffffff8111156128b8576128b761245b565b5b6128c484828501612856565b91505092915050565b600081519050919050565b600082825260208201905092915050565b6000819050602082019050919050565b600060c0830160008301516129116000860182612551565b506020830151848203602086015261292982826125c0565b9150506040830151848203604086015261294382826125c0565b9150506060830151848203606086015261295d82826125c0565b91505060808301516129726080860182612551565b5060a083015184820360a086015261298a82826125c0565b9150508091505092915050565b60006129a383836128f9565b905092915050565b6000602082019050919050565b60006129c3826128cd565b6129cd81856128d8565b9350836020820285016129df856128e9565b8060005b85811015612a1b57848403895281516129fc8582612997565b9450612a07836129ab565b925060208a019950506001810190506129e3565b50829750879550505050505092915050565b60006020820190508181036000830152612a4781846129b8565b905092915050565b6000819050919050565b612a6281612a4f565b8114612a6d57600080fd5b50565b600081359050612a7f81612a59565b92915050565b600060208284031215612a9b57612a9a612456565b5b6000612aa984828501612a70565b91505092915050565b612abb81612a4f565b82525050565b6000602082019050612ad66000830184612ab2565b92915050565b612ae581612547565b8114612af057600080fd5b50565b600081359050612b0281612adc565b92915050565b600080600080600060a08688031215612b2457612b23612456565b5b600086013567ffffffffffffffff811115612b4257612b4161245b565b5b612b4e88828901612856565b955050602086013567ffffffffffffffff811115612b6f57612b6e61245b565b5b612b7b88828901612856565b945050604086013567ffffffffffffffff811115612b9c57612b9b61245b565b5b612ba888828901612856565b935050606086013567ffffffffffffffff811115612bc957612bc861245b565b5b612bd588828901612856565b9250506080612be688828901612af3565b9150509295509295909350565b600073ffffffffffffffffffffffffffffffffffffffff82169050919050565b6000612c1e82612bf3565b9050919050565b612c2e81612c13565b8114612c3957600080fd5b50565b600081359050612c4b81612c25565b92915050565b60008060408385031215612c6857612c67612456565b5b6000612c7685828601612a70565b9250506020612c8785828601612c3c565b9150509250929050565b60008060008060008060c08789031215612cae57612cad612456565b5b600087013567ffffffffffffffff811115612ccc57612ccb61245b565b5b612cd889828a01612856565b965050602087013567ffffffffffffffff811115612cf957612cf861245b565b5b612d0589828a01612856565b955050604087013567ffffffffffffffff811115612d2657612d2561245b565b5b612d3289828a01612856565b9450506060612d4389828a01612af3565b935050608087013567ffffffffffffffff811115612d6457612d6361245b565b5b612d7089828a01612856565b92505060a087013567ffffffffffffffff811115612d9157612d9061245b565b5b612d9d89828a01612856565b9150509295509295509295565b60008060408385031215612dc157612dc0612456565b5b600083013567ffffffffffffffff811115612ddf57612dde61245b565b5b612deb85828601612856565b925050602083013567ffffffffffffffff811115612e0c57612e0b61245b565b5b612e1885828601612856565b9150509250929050565b600060208284031215612e3857612e37612456565b5b6000612e4684828501612c3c565b91505092915050565b600082825260208201905092915050565b6000612e6b82612560565b612e758185612e4f565b9350612e8581856020860161257c565b612e8e816125af565b840191505092915050565b60006020820190508181036000830152612eb38184612e60565b905092915050565b612ec481612c13565b82525050565b6000602082019050612edf6000830184612ebb565b92915050565b600081519050919050565b600082825260208201905092915050565b6000819050602082019050919050565b60006060830160008301518482036000860152612f2e82826125c0565b91505060208301518482036020860152612f4882826125c0565b91505060408301518482036040860152612f6282826125c0565b9150508091505092915050565b6000612f7b8383612f11565b905092915050565b6000602082019050919050565b6000612f9b82612ee5565b612fa58185612ef0565b935083602082028501612fb785612f01565b8060005b85811015612ff35784840389528151612fd48582612f6f565b9450612fdf83612f83565b925060208a01995050600181019050612fbb565b50829750879550505050505092915050565b6000602082019050818103600083015261301f8184612f90565b905092915050565b7f4e487b7100000000000000000000000000000000000000000000000000000000600052602260045260246000fd5b6000600282049050600182168061306e57607f821691505b6020821081141561308257613081613027565b5b50919050565b7f4e487b7100000000000000000000000000000000000000000000000000000000600052603260045260246000fd5b7f4e487b7100000000000000000000000000000000000000000000000000000000600052601160045260246000fd5b60006130f182612547565b91507fffffffffffffffffffffffffffffffffffffffffffffffffffffffffffffffff821415613124576131236130b7565b5b600182019050919050565b7f53656c6c657220636f64652063616e6e6f7420626520656d7074790000000000600082015250565b6000613165601b83612e4f565b91506131708261312f565b602082019050919050565b6000602082019050818103600083015261319481613158565b9050919050565b600081905092915050565b60006131b182612560565b6131bb818561319b565b93506131cb81856020860161257c565b80840191505092915050565b60006131e382846131a6565b915081905092915050565b7f416363657373436f6e74726f6c3a2063616e206f6e6c792072656e6f756e636560008201527f20726f6c657320666f722073656c660000000000000000000000000000000000602082015250565b600061324a602f83612e4f565b9150613255826131ee565b604082019050919050565b600060208201905081810360008301526132798161323d565b9050919050565b60008190508160005260206000209050919050565b600081546132a281613056565b6132ac818661319b565b945060018216600081146132c757600181146132d85761330b565b60ff1983168652818601935061330b565b6132e185613280565b60005b83811015613303578154818901526001820191506020810190506132e4565b838801955050505b50505092915050565b60006133208284613295565b915081905092915050565b7f50726f64756374206e6f7420666f756e64000000000000000000000000000000600082015250565b6000613361601183612e4f565b915061336c8261332b565b602082019050919050565b6000602082019050818103600083015261339081613354565b9050919050565b7f417661696c61626c650000000000000000000000000000000000000000000000600082015250565b60006133cd60098361319b565b91506133d882613397565b600982019050919050565b60006133ee826133c0565b9150819050919050565b7f50726f64756374206973206e6f7420617661696c61626c6520666f722073616c60008201527f6500000000000000000000000000000000000000000000000000000000000000602082015250565b6000613454602183612e4f565b915061345f826133f8565b604082019050919050565b6000602082019050818103600083015261348381613447565b9050919050565b60008160601b9050919050565b60006134a28261348a565b9050919050565b60006134b482613497565b9050919050565b6134cc6134c782612c13565b6134a9565b82525050565b60006134de82846134bb565b60148201915081905092915050565b7f416363657373436f6e74726f6c3a206163636f756e7420000000000000000000600082015250565b600061352360178361319b565b915061352e826134ed565b601782019050919050565b7f206973206d697373696e6720726f6c6520000000000000000000000000000000600082015250565b600061356f60118361319b565b915061357a82613539565b601182019050919050565b600061359082613516565b915061359c82856131a6565b91506135a782613562565b91506135b382846131a6565b91508190509392505050565b60006135ca82612547565b91506135d583612547565b9250817fffffffffffffffffffffffffffffffffffffffffffffffffffffffffffffffff048311821515161561360e5761360d6130b7565b5b828202905092915050565b600061362482612547565b915061362f83612547565b9250827fffffffffffffffffffffffffffffffffffffffffffffffffffffffffffffffff03821115613664576136636130b7565b5b828201905092915050565b600061367a82612547565b9150600082141561368e5761368d6130b7565b5b600182039050919050565b7f537472696e67733a20686578206c656e67746820696e73756666696369656e74600082015250565b60006136cf602083612e4f565b91506136da82613699565b602082019050919050565b600060208201905081810360008301526136fe816136c2565b905091905056fea264697066735822122073d0574269b54250bf7feb5005f93172419ba75c9c8cf0c30092060eb2f907d764736f6c634300080c0033",
  "immutableReferences": {},
  "source": "// SPDX-License-Identifier: MIT \r\npragma solidity ^0.8.12;\r\n\r\nimport \"@openzeppelin/contracts/access/AccessControl.sol\";\r\n\r\ncontract Product is AccessControl {\r\n\r\n    bytes32 public constant MANUFACTURER = keccak256(\"MANUFACTURER\");\r\n    uint256 private sellerCount;\r\n    uint256 private productCount;\r\n\r\n    address public manufacturer = 0x33B5c16d24Ff814F040dd6944b8aD19B1Af80897;\r\n\r\n    struct Seller {\r\n        uint256 sellerId;\r\n        string sellerName;\r\n        string sellerBrand;\r\n        uint256 sellerNum;\r\n        string sellerManager;\r\n        string sellerAddress;\r\n    }\r\n    mapping(uint256 => Seller) private sellers;\r\n\r\n    struct ProductItem {\r\n        uint256 productId;\r\n        string productSN;\r\n        string productName;\r\n        string productBrand;\r\n        uint256 productPrice;\r\n        string productStatus;\r\n    }\r\n\r\n    struct ProductInfo {\r\n        string productSN;\r\n        string sellerAddress;\r\n        string manufacturerCode;\r\n    }\r\n\r\n    mapping(uint256 => ProductItem) private productItems;\r\n    mapping(string => uint256) private productMap;\r\n    mapping(string => string) private productsManufactured;\r\n    mapping(string => string) private productsForSale;\r\n    mapping(string => string) private productsSold;\r\n    mapping(string => string[]) private productsWithSeller;\r\n    mapping(string => string[]) private productsWithConsumer;\r\n    mapping(string => string[]) private sellersWithManufacturer;\r\n\r\n    constructor() {\r\n        _setupRole(MANUFACTURER, manufacturer);\r\n    }\r\n\r\n    // SELLER SECTION\r\n\r\n    function addSeller(\r\n        string memory _manufacturerId,\r\n        string memory _sellerName,\r\n        string memory _sellerBrand,\r\n        uint256 _sellerNum,\r\n        string memory _sellerManager,\r\n        string memory _sellerAddress\r\n    ) public onlyRole(MANUFACTURER) {\r\n        sellers[sellerCount] = Seller(\r\n            sellerCount, _sellerName, _sellerBrand, _sellerNum, _sellerManager, _sellerAddress\r\n        );\r\n        sellerCount++;\r\n        sellersWithManufacturer[_manufacturerId].push(_sellerAddress);\r\n    }\r\n\r\n    function viewSellers() public view returns (\r\n        Seller[] memory\r\n    ) {\r\n        Seller[] memory allSellers = new Seller[](sellerCount);\r\n        for (uint256 i = 0; i < sellerCount; i++) {\r\n            allSellers[i] = sellers[i];\r\n        }\r\n        return allSellers;\r\n    }\r\n\r\n    // PRODUCT SECTION\r\n\r\n    function addProduct(\r\n        string memory _manufacturerID,\r\n        string memory _productName,\r\n        string memory _productSN,\r\n        string memory _productBrand,\r\n        uint256 _productPrice\r\n    ) public onlyRole(MANUFACTURER) {\r\n        productItems[productCount] = ProductItem(\r\n            productCount, _productSN, _productName, _productBrand, _productPrice, \"Available\"\r\n        );\r\n        productMap[_productSN] = productCount;\r\n        productCount++;\r\n        productsManufactured[_productSN] = _manufacturerID;\r\n    }\r\n\r\n    function viewProductItems() public view returns (\r\n        ProductItem[] memory\r\n    ) {\r\n        ProductItem[] memory allProducts = new ProductItem[](productCount);\r\n        for (uint256 i = 0; i < productCount; i++) {\r\n            allProducts[i] = productItems[i];\r\n        }\r\n        return allProducts;\r\n    }\r\n\r\n    //SELL Product\r\n\r\n    function manufacturerSellProduct(string memory _productSN, string memory _sellerAddress) public{\r\n        productsWithSeller[_sellerAddress].push(_productSN);\r\n        productsForSale[_productSN] = _sellerAddress;\r\n\r\n    }\r\n\r\n    function sellerSellProduct(string memory _productSN, string memory _consumerCode) public {   \r\n        uint256 j = 0;\r\n        bool found = false;\r\n\r\n        if(productCount > 0) {\r\n            for(uint256 i = 0; i < productCount; i++) {\r\n                if(keccak256(abi.encodePacked(productItems[i].productSN)) == keccak256(abi.encodePacked(_productSN))) {\r\n                    j = i;\r\n                    found = true;\r\n                    break;\r\n                }\r\n            }\r\n        }\r\n\r\n        require(found, \"Product not found\");\r\n        \r\n        bool isAvailable = keccak256(abi.encodePacked(productItems[j].productStatus)) == keccak256(abi.encodePacked(\"Available\"));\r\n        require(isAvailable, \"Product is not available for sale\");\r\n\r\n        productItems[j].productStatus = \"NA\";\r\n        productsWithConsumer[_consumerCode].push(_productSN);\r\n        productsSold[_productSN] = _consumerCode;\r\n    }\r\n\r\n    function queryProductsList(string memory _sellerAddress) \r\n    public view returns (ProductItem[] memory) \r\n    {\r\n        require(bytes(_sellerAddress).length > 0, \"Seller code cannot be empty\");\r\n\r\n        string[] memory productSNs = productsWithSeller[_sellerAddress];\r\n        uint256 matchCount = 0;\r\n\r\n        // First pass: count matching products\r\n        for (uint256 i = 0; i < productSNs.length; i++) {\r\n            if (bytes(productSNs[i]).length > 0) {\r\n                matchCount++;\r\n            }\r\n        }\r\n\r\n        // Initialize array with the correct size\r\n        ProductItem[] memory products = new ProductItem[](matchCount);\r\n\r\n        // Second pass: fill array\r\n        uint256 currentIndex = 0;\r\n        for (uint256 i = 0; i < productSNs.length; i++) {\r\n            string memory currentSN = productSNs[i];\r\n            if (bytes(currentSN).length > 0) {\r\n                uint256 productId = productMap[currentSN];\r\n                products[currentIndex] = productItems[productId];\r\n                currentIndex++;\r\n            }\r\n        }\r\n\r\n        return products;\r\n    }\r\n\r\n\r\n    function getPurchaseHistory(string memory _consumerCode) public view returns (ProductInfo[] memory) {\r\n        string[] memory productSNs = productsWithConsumer[_consumerCode];\r\n        ProductInfo[] memory productInfos = new ProductInfo[](productSNs.length);\r\n\r\n        for (uint i = 0; i < productSNs.length; i++) {\r\n            productInfos[i] = ProductInfo({\r\n                productSN: productSNs[i],\r\n                sellerAddress: productsForSale[productSNs[i]],\r\n                manufacturerCode: productsManufactured[productSNs[i]]\r\n            });\r\n        }\r\n\r\n        return productInfos;\r\n    }\r\n\r\n    function verifyProduct(string memory _productSN, string memory _consumerCode) public view returns (bool) {\r\n        return keccak256(abi.encodePacked(productsSold[_productSN])) == keccak256(abi.encodePacked(_consumerCode));\r\n    }\r\n\r\n    // Check Role of an Address\r\n    function getRole(address account) public view returns (string memory) {\r\n        if (hasRole(MANUFACTURER, account)) {\r\n            return \"Manufacturer\";\r\n        }\r\n        \r\n        for (uint256 i = 0; i < sellerCount; i++) {\r\n            if (keccak256(abi.encodePacked(sellers[i].sellerAddress)) == keccak256(abi.encodePacked(account))) {\r\n                return \"Seller\";\r\n            }\r\n        }\r\n\r\n        for (uint256 i = 0; i < productCount; i++) {\r\n            string memory accountStr = string(abi.encodePacked(account));\r\n            for (uint256 j = 0; j < productsWithConsumer[accountStr].length; j++) {\r\n                if (keccak256(abi.encodePacked(productsWithConsumer[accountStr][j])) == keccak256(abi.encodePacked(productItems[i].productSN))) {\r\n                    return \"Customer\";\r\n                }\r\n            }\r\n        }\r\n\r\n        return \"Unknown\";\r\n    }\r\n}",
  "sourcePath": "D:\\Codes\\Projects\\verifychain-blockchain\\contracts\\Product.sol",
  "compiler": {
    "name": "solc",
    "version": "0.8.12+commit.f00d7308.Emscripten.clang"
  },
  "schemaVersion": "3.4.16",
  "updatedAt": "2025-03-27T06:29:09.602Z",
  "networkType": "ethereum",
  "devdoc": {
    "kind": "dev",
    "methods": {
      "getRoleAdmin(bytes32)": {
        "details": "Returns the admin role that controls `role`. See {grantRole} and {revokeRole}. To change a role's admin, use {_setRoleAdmin}."
      },
      "grantRole(bytes32,address)": {
        "details": "Grants `role` to `account`. If `account` had not been already granted `role`, emits a {RoleGranted} event. Requirements: - the caller must have ``role``'s admin role. May emit a {RoleGranted} event."
      },
      "hasRole(bytes32,address)": {
        "details": "Returns `true` if `account` has been granted `role`."
      },
      "renounceRole(bytes32,address)": {
        "details": "Revokes `role` from the calling account. Roles are often managed via {grantRole} and {revokeRole}: this function's purpose is to provide a mechanism for accounts to lose their privileges if they are compromised (such as when a trusted device is misplaced). If the calling account had been revoked `role`, emits a {RoleRevoked} event. Requirements: - the caller must be `account`. May emit a {RoleRevoked} event."
      },
      "revokeRole(bytes32,address)": {
        "details": "Revokes `role` from `account`. If `account` had been granted `role`, emits a {RoleRevoked} event. Requirements: - the caller must have ``role``'s admin role. May emit a {RoleRevoked} event."
      },
      "supportsInterface(bytes4)": {
        "details": "See {IERC165-supportsInterface}."
      }
    },
    "version": 1
  },
  "userdoc": {
    "kind": "user",
    "methods": {},
    "version": 1
  }
}